S01900004C616E7465726E436F6E74726F6C6C65722E7372656313
S11300000C9490000C94B0000C94B0000C94B000CC
S11300100C94B0000C94B0000C94B0000C94B0009C
S11300200C94B0000C94B0000C94B0000C94B0008C
S11300300C94B0000C94D6040C94B0000C94B00052
S11300400C94B0000C94B0000C94B0000C94B0006C
S11300500C94B0000C94B0000C94B0000C94B0005C
S11300600C94B0000C94B0000C94B0000C94B0004C
S11300700C94B0000C94B0000C94B0000C94B0003C
S11300800C94B0000C94B0000C94B0000C94B0002C
S11300900C94B0000C94B0000C94B0000C94B0001C
S11300A00C94B0000C94B0000C9417010C942E0125
S11300B00C94B0000C94B0000C94B0000C94B000FC
S11300C00C94B0000C94B0000C94B0000C94B000EC
S11300D00C94B0000C94B0000C94B0000C94B000DC
S11300E00C94B0000C94B0000C94B0000C94B000CC
S11300F00C94C1020C949A020C94B0000C94560215
S11301000C94B0000C94B0000C94B0000C94B000AB
S11301100C94B0000C94B0000C94B0000C94B0009B
S113012011241FBECFEFD1E4DEBFCDBF12E0A0E0AB
S1130130B2E0E2E7FAE300E00BBF02C007900D92E1
S1130140A030B107D9F71BBE18E0A0E0B2E001C0AF
S11301501D92A433B107E1F70E94E31C0C94371DF0
S11301600C94000020EE20937C0021E820937A0078
S11301702FE120937E0020917B0027FFFCCF2FE10D
S113018020937700089520E020937B0020EE877071
S1130190282B20937C0020917B0025FFFCCF21ECB1
S11301A020937A0020917A0026FDFCCF809179007B
S11301B090E00895CF93DF93CDB7DEB784E590E068
S11301C0FC01108288E10FB6F894809360001092CD
S11301D060000FBE78940E94F000DF91CF910895E3
S11301E0CF93DF93CDB7DEB71092150888EA90E07D
S11301F020E23EE4FC013183208381EA90E028E0A0
S1130200FC01208381EA90E021EA30E0F9012081B9
S11302102260FC01208382E790E022E730E0F901CC
S113022020812260FC012083DF91CF9108951F92E9
S11302300F920FB60F9211248F93CF93DF93CDB704
S1130240DEB7809115088F5F80931508DF91CF91F9
S11302508F910F900FBE0F901F9018951F920F92C1
S11302600FB60F9211248F93CF93DF93CDB7DEB7E0
S113027081E080930002DF91CF918F910F900FBEA8
S11302800F901F901895CF93DF93CDB7DEB789E316
S113029091E0FC0120812160FC01208388E00E9420
S11302A00B048EE691E0FC0120812062FC01208396
S11302B08EE691E0FC0120812F7EFC0120838FE4F7
S11302C091E02FEFFC0120838EE491E0FC0120817A
S11302D02860FC0120838EE491E0FC0120812064ED
S11302E0FC0120838CE491E0FC0120812068FC0166
S11302F020838DE691E021E1FC012083109201022C
S11303001092070281E080930C02DF91CF9108954F
S1130310CF93DF930F92CDB7DEB78983809101022B
S11303208860809301028981809307020F90DF9196
S1130330CF910895CF93DF930F92CDB7DEB7898322
S1130340809101028160809301028981809302027D
S11303500F90DF91CF910895CF93DF9300D0CDB765
S1130360DEB79A83898380910102826080930102BF
S113037089819A8190930402809303020F900F90D5
S1130380DF91CF910895CF93DF9300D0CDB7DEB73F
S11303909A83898380910102846080930102898118
S11303A09A8190930602809305020F900F90DF913B
S11303B0CF910895CF93DF93CDB7DEB780910C0230
S11303C0813021F480910102882319F081E090E0CA
S11303D002C080E090E0DF91CF910895CF93DF9346
S11303E000D000D0CDB7DEB79B838A836C8389E1CC
S11303F00E940B0480E891E02C812E5FFC01208395
S1130400198213C08981882F90E08F579E4F2981CC
S1130410222F30E04A815B81240F351FF9012081AE
S1130420FC01208389818F5F898399818C8198174E
S113043048F382E491E022E0FC01208383E080938E
S11304400C020F900F900F900F90DF91CF910895B1
S1130450CF93DF9300D000D0CDB7DEB79A838983E2
S11304607C836B8380910102806280930102898185
S11304709A8190930902809308028B819C819093C6
S11304800B0280930A020F900F900F900F90DF9150
S1130490CF910895CF93DF93CDB7DEB7809101025A
S11304A0806480930102DF91CF9108951F920F928F
S11304B00FB60F9200905B000F9211242F933F937D
S11304C04F935F936F937F938F939F93AF93BF9358
S11304D0EF93FF93CF93DF93CDB7DEB781E491E041
S11304E0FC0180818F71893179F489E00E940B04C9
S11304F084E080930C0282E491E0FC018081829587
S11305008695877080930D02DF91CF91FF91EF91D3
S1130510BF91AF919F918F917F916F915F914F9117
S11305203F912F910F9000925B000F900FBE0F90A0
S11305301F9018951F920F920FB60F9200905B00B8
S11305400F9211248F939F93EF93FF93CF93DF9395
S1130550CDB7DEB787E491E0FC01808180930E0281
S113056087E080930C02DF91CF91FF91EF919F91EF
S11305708F910F9000925B000F900FBE0F901F9011
S113058018951F920F920FB60F9200905B000F9276
S113059011242F938F939F93EF93FF93CF93DF9324
S11305A0CDB7DEB782E491E029E0FC01208387E443
S11305B091E0FC01808180930E028BE791E0FC01C5
S11305C0808180930F0285E080930C02DF91CF91AC
S11305D0FF91EF919F918F912F910F9000925B006B
S11305E00F900FBE0F901F901895CF93DF9300D0FC
S11305F00F92CDB7DEB7198212C08FE391E040911C
S11306000A0250910B022981222F30E0240F351F5A
S1130610F9012081FC01208389818F5F898389818D
S1130620803158F38CE391E0FC0110821A8212C0ED
S11306308EE391E040910802509109022A81222F11
S113064030E0240F351FF9012081FC0120838A81C9
S11306508F5F8A838A81803158F38CE391E02CE3A5
S113066031E0F90120812068FC01208300008DE342
S113067091E0FC018081882F90E081709070009758
S1130680B1F31B8212C020910802309109028B81C0
S1130690882F90E0820F931F2EE331E0F90120812F
S11306A0FC0120838B818F5F8B838B81803158F396
S11306B00F900F900F90DF91CF910895CF93DF9318
S11306C0CDB7DEB780910702882321F086E10E942E
S11306D00B0403C088E00E940B04DF91CF910895BE
S11306E0CF93DF9300D000D0CDB7DEB788E00E946F
S11306F00B0480910102882F90E081709070882310
S113070061F088E491E0209102022F712F71FC01C5
S11307103081307E232BFC01208380910102882FBD
S113072090E0827090700097A1F083E092E09A8349
S1130730898382E691E029813A81F9012081FC01D3
S1130740208383E691E029813A81F9012181FC012A
S1130750208380910102882F90E08470907000972C
S1130760A1F085E092E09C838B8380E691E02B816D
S11307703C81F9012081FC01208381E691E02B81F9
S11307803C81F9012181FC01208380910102882FA1
S113079090E080729070009721F00E94F5020E9410
S11307A0761780910102882F90E0807490700097F2
S11307B0F9F08EE491E0FC012081277FFC01208385
S11307C08EE491E0FC0120812F7BFC0120838EE4E8
S11307D091E0FC0120812061FC01208386E00E94DD
S11307E00B0487E491E0FC01108286E080930C0204
S11307F080910102882F90E080749070009711F42A
S11308000E945E03109201020F900F900F900F90C0
S1130810DF91CF910895CF93DF930F92CDB7DEB7D9
S1130820898382E491E023E0FC01208382E491E067
S11308302981FC012083000081E491E0FC01808196
S11308408F71982F89819817B9F70F90DF91CF9105
S11308500895CF93DF9300D000D000D0CDB7DEB79A
S113086080910C02882F90E084309105B9F0853096
S1130870910524F48130910549F08CC085309105AF
S1130880F9F08730910509F460C084C080910102B9
S1130890882309F481C00E9470037EC080910D02F8
S11308A00E947914000081E491E0FC0180818F7141
S11308B08930C9F781E080930C020E945E036DC009
S11308C0198211C08981882F90E02981222F30E07C
S11308D020583E4FF9012081805F9D4FFC01208309
S11308E089818F5F89838981282F30E080910F026D
S11308F0882F90E001962817390724F380E192E0CD
S11309009B838A8380910F0282508C8380910F0293
S1130910882F90E0805F9D4FFC0180818D838091C2
S11309200E028A558E83CE0102960E94EC0D0000C1
S113093081E491E0FC0180818F718930C9F781E005
S113094080930C020E945E0328C080910E028A5597
S11309500E94901B8FE491E02FEFFC0120838EE432
S113096091E0FC0120812860FC0120838EE491E069
S1130970FC0120812064FC0120838EE491E0FC01D1
S113098020812F7EFC01208381E080930C020E9451
S11309905E0303C0000001C0000026960FB6F89461
S11309A0DEBF0FBECDBFDF91CF9108951F920F928E
S11309B00FB60F9211248F93CF93DF93CDB7DEB789
S11309C081E080939002DF91CF918F910F900FBEC1
S11309D00F901F901895CF93DF930F92CDB7DEB78A
S11309E010921A0810921B081092170810921608F9
S11309F019820EC08981882F90E00396880F991F71
S1130A008A5E974FFC011182108289818F5F8983EE
S1130A108981843078F30E945A120E94B00D0E949A
S1130A20F5090E9472050E94F90A0E947E070F9040
S1130A30DF91CF910895CF93DF9300D0CDB7DEB788
S1130A409A83898389819A819093170880931608E1
S1130A5089819A810E94C3010F900F90DF91CF91F9
S1130A600895CF93DF9300D0CDB7DEB79A838983FF
S1130A7089819A81909319088093180889819A81B1
S1130A800E94AC010F900F90DF91CF910895CF9306
S1130A90DF9300D00F92CDB7DEB789837B836A835F
S1130AA08981882F90E00396880F991F8A5E974F5B
S1130AB02A813B81FC01318320830F900F900F909A
S1130AC0DF91CF910895CF93DF93CDB7DEB70E9426
S1130AD0B4110E949F140E9448070E947109DF917B
S1130AE0CF910895CF93DF93CDB7DEB710929202E2
S1130AF010929102DF91CF910895CF93DF9300D0AC
S1130B00CDB7DEB79A83898389819A81FC011482E7
S1130B1089819A81FC01178689819A81FC0113825B
S1130B2012828091910290919202009761F48981DE
S1130B309A81FC011182108289819A819093920298
S1130B40809391020FC02091910230919202898189
S1130B509A81FC013183208389819A819093920246
S1130B60809391020F900F90DF91CF910895CF93CE
S1130B70DF9300D000D00F92CDB7DEB79D838C8376
S1130B808C819D81FC01848589838C819D81FC01FC
S1130B908185882F90E082709070009719F0898188
S1130BA08C5F898389810E941B0A9B838A838A8143
S1130BB09B81009759F48C819D8122E0FC01248360
S1130BC08C819D8122E0FC012787BFC08C819D819F
S1130BD02A813B81FC01338322838C819D8121E026
S1130BE0FC0124838A819B818D579F4F2DEA36E037
S1130BF0FC01318320838C819D81FC018185882FB8
S1130C0090E08470907021E0009709F420E08A81DC
S1130C109B818E579F4FFC0120838C819D81FC0119
S1130C2081858170282F217021708A819B81217098
S1130C30FC0133853E7F232BFC0123878C819D811E
S1130C40FC018185882F90E08270907021E00097EC
S1130C5009F420E08A819B812170220FFC013385F5
S1130C603D7F232BFC0123878C819D81FC018185A1
S1130C70882F90E08870907021E0009709F420E0BC
S1130C808A819B812170220F220FFC0133853B7FD7
S1130C90232BFC0123878A819B81FC0123852770F8
S1130CA0FC01238780911A088F5F80931A08209192
S1130CB01A088A819B81FC012487209116083091AF
S1130CC017088A819B81FC01368725878C819D8149
S1130CD0FC01258136818A819B81FC01308B278729
S1130CE08C819D81FC018085282F2F708A819B81B6
S1130CF02F70FC013189307F232BFC01218B8C81E7
S1130D009D81FC018781282F2F708A819B812295E8
S1130D10207FFC0131893F70232BFC01218B8A81C8
S1130D209B8142962C813D81F901428553852C811A
S1130D303D81F9012485222F30E0BA01A9010E94E6
S1130D402E1D8A819B810E947B120F900F900F9021
S1130D500F900F90DF91CF910895CF93DF9300D040
S1130D6000D0CDB7DEB79C838B83809191029091A4
S1130D7092029A8389832BC089819A81FC01228102
S1130D8033818B819C8128173907D1F48B819C8115
S1130D9081589F4FFC01208189819A81FC0127871A
S1130DA08B819C818E579F4FFC01208189819A8180
S1130DB0FC01208B89819A8122E0FC0124830BC0F1
S1130DC089819A81FC01808191819A8389838981B7
S1130DD09A81009789F68B819C810E94680A0F9002
S1130DE00F900F900F90DF91CF910895CF93DF93E1
S1130DF000D000D0CDB7DEB79C838B8320919102C5
S1130E00309192028B819C812817390761F480917B
S1130E10910290919202FC018081918190939202BF
S1130E208093910225C080919102909192029A83BD
S1130E30898307C089819A81FC01808191819A8389
S1130E40898389819A81FC01208131818B819C81F4
S1130E502817390779F789819A81FC01808191816A
S1130E60FC012081318189819A81FC0131832083B5
S1130E708B819C81FC01258536858B819C81F901C0
S1130E8009950F900F900F900F90DF91CF910895D7
S1130E90CF93DF9300D0CDB7DEB7809191029091CC
S1130EA092029A83898321C089819A81FC01848179
S1130EB0882F90E08130910581F08230910539F0DE
S1130EC0009751F489819A810E94B70512C08981E3
S1130ED09A810E94F6060DC001C0000089819A81A2
S1130EE0FC01808191819A83898389819A81009709
S1130EF0D9F60F900F90DF91CF910895CF93DF93A0
S1130F00CDB7DEB71092930210929502109294021C
S1130F10DF91CF910895CF93DF9300D00F92CDB797
S1130F20DEB79A8389836B838B81882331F089812F
S1130F309A8120E3FC01208305C089819A8121E301
S1130F40FC012083809193028F5F809393020F9022
S1130F500F900F90DF91CF910895CF93DF9300D03E
S1130F60CDB7DEB7809194029091950202969A8350
S1130F70898389819A81FC018285882F90E0A0E091
S1130F80B0E08093990290939A02A0939B02B0934D
S1130F909C0289819A81FC0185859685CC01A0E01B
S1130FA0B0E0AC013327222789819A81FC0187852F
S1130FB082958F70882F90E0A0E0B0E0822B932B75
S1130FC0A42BB52B80939D0290939E02A0939F0225
S1130FD0B093A00289819A81FC0183859485CC0118
S1130FE0A0E0B0E0AC013327222789819A81FC017B
S1130FF087858F70882F90E0A0E0B0E0822B932B40
S1131000A42BB52B8093A1029093A202A093A302D8
S1131010B093A40289819A81FC0183819481CC01DB
S1131020A0E0B0E0AC013327222789819A81099698
S1131030FC018081882F90E0A0E0B0E0822B932B0C
S1131040A42BB52B8093A5029093A602A093A7028C
S1131050B093A8028091940290919502FC01818141
S113106084518093960210929702809194029091F9
S11310709502FC01908181E0903309F080E0809337
S11310809802809194029091950222E3FC012083BE
S11310900F900F90DF91CF910895CF93DF9300D0FD
S11310A000D000D0CDB7DEB789E992E09B838A8374
S11310B080919402909195029C012E5E3F4F809105
S11310C09702882F90E0820F931F9D838C838091D9
S11310D09602813108F080E18E83198252C08981A1
S11310E0882F90E02C813D81820F931F2981222F2C
S11310F030E04C815D81240F351FF9016081298125
S1131100222F30E04A815B81240F351FF9012081B1
S11311102627FC01208380919802882399F08981F5
S1131120882F90E02A813B81820F931F2981222FEF
S113113030E04C815D81240F351FF9012081FC01D1
S113114020831CC08981882F90E02A813B81820FF3
S1131150931F2981222F30E04A815B81240F351FA0
S1131160F90160812981222F30E04C815D81240FB7
S1131170351FF90120812627FC01208389818F5F97
S1131180898399818E81981708F4A9CF9091970249
S11311908E81890F80939702909196028E81F92F08
S11311A0F81B8F2F8093960280919602882341F03A
S11311B0809194029091950222E3FC01208307C060
S11311C0809194029091950224E3FC012083269659
S11311D00FB6F894DEBF0FBECDBFDF91CF91089557
S11311E0CF93DF93CDB7DEB72A970FB6F894DEBF5F
S11311F00FBECDBF80919402909195029C012E5E0A
S11312003F4F80919702882F90E0820F931F9A831B
S113121089832091990230919A0240919B025091C6
S11312209C0280919D0290919E02A0919F02B09198
S1131230A002282739274A275B278091A102909191
S1131240A202A091A302B091A402282739274A2719
S11312505B278091A5029091A602A091A702B0916C
S1131260A80282279327A427B5278B839C83AD8369
S1131270BE8380919802882381F0CE010396FC01FD
S113128080819181A281B38129813A81F90180838E
S11312909183A283B38361E01AC089819A81FC019E
S11312A080819181A281B3818F839887A987BA872E
S11312B02B813C814D815E818F819885A985BA857A
S11312C061E0281739074A075B0709F060E0862FB9
S11312D02A960FB6F894DEBF0FBECDBFDF91CF9133
S11312E00895CF93DF9300D000D00F92CDB7DEB72F
S11312F080919302882309F46DC0809194029091A7
S11313009502009709F43EC0809194029091950251
S1131310FC0180818433F9F40E94F0088B8380916E
S11313209802882339F080919402909195020E944A
S1131330481407C080919402909195026B810E9499
S1131340C00E1092950210929402809193028150E3
S11313508093930241C08091940290919502FC0184
S113136080818233C9F5809194029091950223E3A0
S1131370FC01208389E992E024E238E0B9010E946B
S11313805E172AC01A8219821FC089810E94780AB6
S11313909D838C838C819D81FC018081803331F01D
S11313A08C819D81FC018081813349F48C819D81F4
S11313B090939502809394020E94AD070EC0898198
S11313C09A8101969A83898389819A8183309105D0
S11313D0E4F203C0000001C000000F900F900F90D2
S11313E00F900F90DF91CF910895CF93DF9300D0AA
S11313F0CDB7DEB71A82198214C049815A8125E813
S113140030E0429FC001439F900D529F900D1124E4
S113141087559D4FFC01108289819A8101969A8398
S1131420898389819A81833091053CF30F900F90D1
S1131430DF91CF910895CF93DF9300D00F92CDB772
S1131440DEB78B831A82198236C049815A8125E816
S113145030E0429FC001439F900D529F900D112494
S113146087559D4FFC018081882301F58B81682F6E
S1131470605F49815A8125E830E0429FC001439F63
S1131480900D529F900D112486559D4FFC01608351
S113149049815A8125E830E0429FC001439F900D65
S11314A0529F900D112487559D4F0CC089819A81BC
S11314B001969A83898389819A81833091052CF2DC
S11314C080E090E00F900F900F90DF91CF910895FE
S11314D0CF93DF9300D0CDB7DEB79A838983898118
S11314E09A81FC0110820F900F90DF91CF910895A3
S11314F0CF93DF930F92CDB7DEB789838981482FCD
S113150050E025E830E0429FC001439F900D529F78
S1131510900D112487559D4F0F90DF91CF91089521
S1131520CF93DF9300D0CDB7DEB79A8389838981C7
S11315309A8181589F4FFC01108289819A81805839
S11315409F4FFC011182108289819A818E579F4F8F
S1131550FC01108289819A818D579F4FFC01118271
S1131560108289819A81FC0123852E7FFC012387C7
S113157089819A81FC0123852D7FFC012387898140
S11315809A81FC0123852B7FFC01238789819A8121
S1131590FC0123852770FC01238780911A088F5F43
S11315A080931A0820911A0889819A81FC01248762
S11315B0209116083091170889819A81FC01368799
S11315C0258789819A81FC01108A178689819A81ED
S11315D0FC012189207FFC01218B89819A81FC01F6
S11315E021892F70FC01218B0F900F90DF91CF91F7
S11315F00895CF93DF930F92CDB7DEB7198214C04D
S11316008981282F30E0C901880F991F820F931F09
S1131610880F991F885C9B4F2FEF3FEFFC013183AC
S1131620208389818F5F89838981843648F30F9071
S1131630DF91CF910895CF93DF9300D00F92CDB770
S1131640DEB79B838A83198224C08981282F30E0E6
S1131650C901880F991F820F931F880F991F885CF7
S11316609B4FFC01208131818A819B812817390796
S113167069F48981282F30E0C901880F991F820FEE
S1131680931F880F991F885C9B4F11C089818F5FBE
S1131690898389818436C8F28A819B81FFEF8F3FD9
S11316A09F0719F48AE896E002C080E090E00F906A
S11316B00F900F90DF91CF910895CF93DF9300D0D7
S11316C000D0CDB7DEB79C838B838B819C810E9435
S11316D01B0B9A83898389819A81009739F08981C8
S11316E09A812FEF3FEFFC01318320830F900F90FD
S11316F00F900F90DF91CF910895CF93DF9300D097
S113170000D000D0CDB7DEB79E838D838D819E81BE
S113171002969C838B838B819C81FC0187819085BD
S1131720992374F48B819C81FC01278130858B8102
S11317309C81FC01838594852817390709F06AC0C8
S11317408B819C81FC0183819481FFEF8F3F9F07F4
S113175009F462C08B819C81FC01838594850E947D
S11317601B0B9A83898389819A81009749F1898126
S11317709A81FC01228133818B819C81FC018781C8
S1131780908528173907D9F18D819E8181589F4F03
S1131790FC01208189819A81FC018581821778F579
S11317A08B819C81FC012781308589819A81FC0190
S11317B03383228389819A8123E0FC0124831FC01F
S11317C08FEF9FEF0E941B0B9A8389838B819C81EF
S11317D0FC012385348589819A81FC01318320832E
S11317E08B819C81FC012781308589819A81FC0150
S11317F03383228389819A8123E0FC0124838D81B0
S11318009E8181589F4FFC01208189819A81FC012E
S1131810258303C0000001C0000026960FB6F8948B
S1131820DEBF0FBECDBFDF91CF910895CF93DF937D
S1131830CDB7DEB72C970FB6F894DEBF0FBECDBF81
S11318409C878B878B859C85FC01878590890E946A
S11318501B0B9A83898389819A81009709F465C057
S11318608B859C8581589F4FFC018081882331F4AE
S113187089819A8123E0FC01248318C089819A819B
S1131880FC018481282F215089819A81FC012483C1
S113189089819A81FC018481882341F489819A8118
S11318A02FEF3FEFFC013183208340C029813A812F
S11318B088E394E0A901481B590BCA0186309105BD
S11318C0ACF189819A8106979C838B832B813C811F
S11318D0CE01059646E0F90100802F5F3F4FFC01E1
S11318E00082019641504423B1F78B819C81298168
S11318F03A8146E0F90100802F5F3F4FFC010082EE
S1131900019641504423B1F789819A819E012B5F4E
S11319103F4F46E0F90100802F5F3F4FFC010082FA
S1131920019641504423B1F701C000002C960FB634
S1131930F894DEBF0FBECDBFDF91CF910895CF9352
S1131940DF9300D00F92CDB7DEB79B838A838A8161
S11319509B812FEF8F3F920719F48FEF9FEF2EC0DB
S1131960198227C08981282F30E0C901880F991F67
S1131970820F931F880F991F885C9B4FFC01208165
S113198031818A819B812817390781F48981282F25
S113199030E0C901880F991F820F931F880F991F88
S11319A0865C9B4FFC018081918108C089818F5F97
S11319B0898389818436B0F28FEF9FEF0F900F9067
S11319C00F90DF91CF910895CF93DF9300D0CDB7DF
S11319D0DEB79A83898389819A81FC0187859089FE
S11319E00E949F0CFFEF8F3F9F07A9F089819A8186
S11319F08D579F4F21E23DE0FC0131832083898193
S1131A009A818E579F4F22E0FC01208389819A811D
S1131A100E947B1211C089819A81FC01858596857B
S1131A2029813A81F90127853089B9010E94310D54
S1131A3089819A810E94680A0F900F90DF91CF915B
S1131A400895CF93DF9300D0CDB7DEB79A8389830F
S1131A5089819A810E94680A0F900F90DF91CF913B
S1131A600895CF93DF93CDB7DEB728970FB6F894D8
S1131A70DEBF0FBECDBF9E838D8378876F8385E0E5
S1131A800E941B0A9A83898389819A81009789F12C
S1131A9089819A810E94900A89819A818D579F4FEA
S1131AA023E83DE0FC013183208389819A812D81E3
S1131AB03E81FC01308B278789819A8142969C83E1
S1131AC08B838B819C8121E0FC0120838B819C8111
S1131AD02D813E81FC01328321838B819C812F8166
S1131AE03885FC013483238389819A810E947B1287
S1131AF001C0000028960FB6F894DEBF0FBECDBF1C
S1131B00DF91CF910895CF93DF9300D0CDB7DEB7A7
S1131B109A83898389819A810E94680A0F900F9021
S1131B20DF91CF910895CF93DF9300D000D0CDB74C
S1131B30DEB79C838B838B819C81FC01858196819C
S1131B409A83898389819A81FC01838194810E948B
S1131B505D0B0F900F900F900F90DF91CF91089530
S1131B60CF93DF930F92CDB7DEB7198212C089816C
S1131B70282F30E0C901880F991F880F991F820F01
S1131B80931F8D56994FFC011182108289818F5FBA
S1131B90898389818A3058F31092C20684E190E0E7
S1131BA0A0E0B0E08093CA069093CB06A093CC0645
S1131BB0B093CD061092CE068DED9EE09093D006A4
S1131BC08093CF062FE030E180E0B9010E94470501
S1131BD00F90DF91CF910895CF93DF9300D000D081
S1131BE0CDB7DEB79C838B838B819C81FC01808184
S1131BF091810196FC018081883809F058C08B815D
S1131C009C81FC0180819181FC018081813651F0AD
S1131C108B819C81FC0180819181FC0180818134D4
S1131C2009F045C08B819C81FC018281803108F4DC
S1131C303EC08B819C81FC01828180510E941B0AE1
S1131C409A83898389819A81009799F189819A81FC
S1131C5020E2FC0120838B819C81FC01238189810A
S1131C609A8181589F4FFC0120838B819C81FC01C8
S1131C70248189819A8180589F4FFC012083898126
S1131C809A8102962B813C81F901408151812B81FB
S1131C903C81F9012281222F30E0BA01A9010E947E
S1131CA02E1D8091C2068F5F8093C20603C0000080
S1131CB001C000000F900F900F900F90DF91CF9113
S1131CC00895CF93DF9300D000D000D0CDB7DEB716
S1131CD09E838D8383E00E941B0A9A838983898172
S1131CE09A81009799F189819A810E94900A898149
S1131CF09A818D579F4F20EB3EE0FC013183208376
S1131D008D819E81FC012585368589819A81FC011E
S1131D10308B278789819A8142969C838B838B8120
S1131D209C81FC0110822091C3068B819C81FC0163
S1131D3022838D819E81FC0124858B819C81FC0101
S1131D40218389819A810E947B1201C0000026961A
S1131D500FB6F894DEBF0FBECDBFDF91CF910895CB
S1131D60CF93DF9300D0CDB7DEB79A83898389817F
S1131D709A810E94680A0F900F90DF91CF91089585
S1131D80CF93DF9300D00F92CDB7DEB79A838983C8
S1131D906B838B81882331F089819A8122E2FC0153
S1131DA0208305C089819A8124E2FC0120830F905D
S1131DB00F900F90DF91CF910895CF93DF9300D0D0
S1131DC000D0CDB7DEB79C838B8319821A8234C0CE
S1131DD08A81282F30E0C901880F991F880F991F25
S1131DE0820F931F8D56994FFC018081918100973A
S1131DF001F18A81282F30E0C901880F991F880FCB
S1131E00991F820F931F8D56994FFC0180819181F8
S1131E10AC0141505040C901880F991F880F991F88
S1131E20820F931F8D56994FFC015183408381E0AB
S1131E3089838A818F5F8A838A818A3048F2898183
S1131E40882321F08B819C810E9486150F900F902E
S1131E500F900F90DF91CF910895CF93DF9300D02F
S1131E6000D00F92CDB7DEB79D838C838FEF89832B
S1131E701A8282C08A81282F30E0C901880F991FF5
S1131E80880F991F820F931F8D56994FFC018081F3
S1131E909181009709F46BC08C819D81FC0143857D
S1131EA054858A81282F30E0C901880F991F880F33
S1131EB0991F820F931F8057994FFC018081918154
S1131EC04817590709F055C08C819D81FC01428552
S1131ED08A81282F30E0C901880F991F880F991F24
S1131EE0820F931F8E56994FFC018081F42FF81BAB
S1131EF08F2F8B838B8118162CF58A81282F30E045
S1131F008C819D81FC014285C901880F991F880F2E
S1131F10991F820F931F8E56994FFC0140838A812B
S1131F20282F30E0C901880F991F880F991F820F4D
S1131F30931F8D56994F25E630E0FC0131832083B1
S1131F4080E065C020911608309117088C819D812E
S1131F50FC01858196812817390739F48C819D818C
S1131F60FC01858596850E945D0B81E050C08A81C5
S1131F7089838A818F5F8A838A818A3008F47ACF41
S1131F8089818F3F11F481E042C08981282F332752
S1131F9027FD30958C819D81FC0143855485C901C1
S1131FA0880F991F880F991F820F931F8057994F8D
S1131FB0FC01518340838981282F332727FD3095E5
S1131FC08C819D81FC014285C901880F991F880F6E
S1131FD0991F820F931F8E56994FFC01408389816C
S1131FE0282F332727FD3095C901880F991F880FA3
S1131FF0991F820F931F8D56994F25E630E0FC01FF
S11320003183208384EC96E00E94861580E00F9053
S11320100F900F900F900F90DF91CF910895CF9371
S1132020DF9300D00F92CDB7DEB79B838A838A817A
S11320309B81FC0185819681FC0180818983898152
S1132040882329F48A819B810E9499130AC089817B
S1132050813029F48A819B810E94930D02C080E023
S113206001C081E00F900F900F90DF91CF91089500
S1132070CF93DF93CDB7DEB72E970FB6F894DEBFBC
S11320800FBECDBF9E878D878D859E8502969A83D0
S1132090898389819A81FC01878582958F70882F35
S11320A090E08530910594F489819A81FC018785BB
S11320B082958F70882F90E00396880F991F8A5E0F
S11320C0974FFC0180819181009711F480E092C0C8
S11320D089819A81FC01838594859C838B83898182
S11320E09A81FC0187858F708D8389819A81FC0197
S11320F0878582958F708E838D859E85429699877C
S113210088878D859E85FC01818180518A878D8594
S11321109E8581589F4FFC0180818B878D859E858C
S113212080589F4FFC0180818C8789819A81FC01B2
S1132130818581708F838F81282F89819A81FC0109
S113214081858270822B8F838F81282F89819A8148
S1132150FC0181858470882311F080E201C080E055
S1132160822B8F838F81282F89819A81FC01858519
S11321709685FFEF8F3F9F0711F484E001C080E054
S1132180822B8F838F81482F89819A81FC0123853B
S1132190348589819A81FC018781908528173907C4
S11321A011F488E001C080E0842B8F838F81282F75
S11321B089819A81FC0183819481FFEF8F3F9F077E
S11321C011F480E101C080E0822B8F8389819A81A0
S11321D0FC01878582958F70882F90E00396880F85
S11321E0991F8A5E974FFC0120813181CE010396AD
S11321F0F90109952E960FB6F894DEBF0FBECDBF38
S1132200DF91CF910895CF93DF9300D000D0CDB765
S1132210DEB79C838B838B819C8102969A8389830E
S11322208B819C8124E2FC01208389819A81FC01B9
S113223085859685FFEF8F3F9F0741F489819A81B9
S1132240FC0181858170882309F084C020911608DF
S11322503091170889819A81FC0183859485281718
S1132260390709F477C08B819C810E947D0B898199
S11322709A810E942D0F882309F06EC089819A816A
S1132280FC0185819681FFEF8F3F9F0701F5209127
S113229016083091170889819A81FC0185859685F5
S11322A028173907A1F089819A81FC0183819481DF
S11322B0FFEF8F3F9F0759F089819A81FC01818547
S11322C08470882321F48B819C810E9414132091B3
S11322D016083091170889819A81FC0185859685B5
S11322E02817390749F089819A81FC0185859685EB
S11322F0FFEF8F3F9F0799F489819A81FC018185C3
S11323008270882331F08B819C8121E2FC0120833F
S113231024C08B819C8122E2FC0120831EC0209179
S113232016083091170889819A81FC01858196816C
S11323302817390791F489819A81FC01838194815A
S1132340FFEF8F3F9F0749F08B819C8123E2FC01C3
S1132350208303C0000001C000000F900F900F9075
S11323600F90DF91CF910895CF93DF93CDB7DEB770
S113237028970FB6F894DEBF0FBECDBF8091C2067A
S1132380882309F48DC01A82198283C089810E942E
S1132390780A9C838B838B819C81FC018081882FAC
S11323A090E082329105F1F0833291053CF4803261
S11323B0910569F08132910579F066C08332910507
S11323C009F44EC08432910509F454C05DC08B8178
S11323D09C810E94031158C08B819C8160E00E9403
S11323E08B0752C08B819C8102969E838D831092B1
S11323F0C3068B819C810E9438108F838D819E81BE
S1132400FC0185819681FFEF8F3F9F0779F420912E
S11324101608309117088D819E81FC01858596856B
S11324202817390719F481E090E002C080E090E0B9
S113243088878D819E81FC0181858170882319F0B4
S11324408F81882319F48885882321F08B819C81CE
S11324500E94610E8B819C8124E2FC01208314C0C4
S11324608B819C810E94E40C8091C20681508093F0
S1132470C2060AC08B819C810E94680A8091C206B0
S113248081508093C206000089819A8101969A83C3
S1132490898389819A81833091050CF477CF01C0B7
S11324A0000028960FB6F894DEBF0FBECDBFDF91B3
S11324B0CF910895CF93DF93CDB7DEB71092D206B4
S11324C01092D1061092D30682E390E0A0E0B0E02F
S11324D08093DA069093DB06A093DC06B093DD06C6
S11324E01092DE068DEE93E19093E0068093DF0672
S11324F0DF91CF910895CF93DF9300D000D0CDB773
S1132500DEB79C838B838B819C8102969A8389831B
S11325108B819C818E579F4FFC018081882F90E096
S113252082709070009731F08B819C8121E1FC01D5
S1132530208312C08B819C81FC0183858270882357
S113254031F08B819C8120E1FC01208305C08B81CB
S11325509C8121E1FC0120838B819C8181589F4FC8
S1132560FC0110828B819C818E579F4FFC018081DE
S1132570882F90E081709070882341F08B819C813A
S11325802FEF3FEFFC013683258309C02091180803
S1132590309119088B819C81FC01368325838981C4
S11325A09A81FC01858596850E949F0C9C018981F6
S11325B09A81FC01368325832091160830911708EF
S11325C089819A81FC013087278380911B088F5F62
S11325D080931B0820911B0889819A81FC01228326
S11325E089819A81FC0185819681FFEF8F3F9F0746
S11325F041F489819A8121E438E8FC013183208304
S113260007C089819A8121E638E8FC01318320835F
S11326108091D3068F5F8093D3060F900F900F9015
S11326200F90DF91CF910895CF93DF9300D000D026
S1132630CDB7DEB79C838B838B819C81FC01818128
S113264080510E941B0A9A83898389819A81009709
S113265009F457C089819A818D579F4F29E833E146
S1132660FC013183208389819A8102962B813C81EC
S1132670A9014E5F5F4F2B813C81F9012181222FFB
S113268030E0BA01A9010E942E1D89819A8121E1BD
S1132690FC01208389819A8181589F4FFC0110821B
S11326A089819A8121E438E8FC013383228389817A
S11326B09A812FEF3FEFFC01308727832091180880
S11326C03091190889819A81FC01368325832091F0
S11326D016083091170889819A81FC013287218775
S11326E080911B088F5F80931B0820911B088981B0
S11326F09A81FC0124838091D3068F5F8093D30653
S113270001C000000F900F900F900F90DF91CF91B8
S11327100895CF93DF9300D0CDB7DEB79A83898332
S113272089819A810E94680A0F900F90DF91CF915E
S11327300895CF93DF93CDB7DEB728970FB6F894FB
S1132740DEBF0FBECDBF98878F838F819885FC0134
S1132750858196819C838B838091D306882399F10C
S11327601A8219822AC089810E94780A9E838D83E5
S11327708D819E81FC0180818431D1F48D819E8183
S1132780FC0124858B819C81FC018181281781F4C3
S11327908D819E8125E1FC0120838B819C81FC013C
S11327A022818D819E818E579F4FFC0120830CC016
S11327B089819A8101969A83898389819A81833058
S11327C091058CF201C0000028960FB6F894DEBF84
S11327D00FBECDBFDF91CF910895CF93DF9300D08B
S11327E000D000D0CDB7DEB79E838D838091D30611
S11327F0882309F443C01A82198236C089810E9451
S1132800780A9C838B838B819C81FC018081843139
S113281031F58B819C8180589F4FFC01808191818F
S11328209C01215030408B819C8180589F4FFC013A
S1132830318320838B819C8180589F4FFC01808150
S11328409181009761F48B819C8125E1FC012083B7
S11328508B819C8181589F4F20E1FC0120838981D9
S11328609A8101969A83898389819A81833091051B
S11328702CF28D819E810E94861501C0000026964F
S11328800FB6F894DEBF0FBECDBFDF91CF91089590
S1132890CF93DF9300D0CDB7DEB79A838983898144
S11328A09A8121E1FC0120830F900F90DF91CF9159
S11328B00895CF93DF930F92CDB7DEB789838981D3
S11328C0882331F08981813019F08981823011F4B3
S11328D080E00BC08981833011F480E206C08981D5
S11328E0853011F481E201C081E00F90DF91CF9136
S11328F008950F931F93CF93DF930F92CDB7DEB755
S113290089830091D1061091D20689810E945914BD
S1132910282FC80181589F4FFC0120838091D10644
S11329209091D20623E1FC0120831092D2061092EA
S1132930D1060F90DF91CF911F910F910895CF93FE
S1132940DF9300D000D0CDB7DEB78091D3068823C3
S113295009F4ADC01A821982A3C089810E94780A41
S11329609C838B838B819C81FC018081882F90E0E8
S11329708231910509F48AC0833191053CF4803198
S1132980910581F08131910599F07FC084319105E1
S113299009F47EC0843191054CF18531910509F427
S11329A05FC073C08B819C8161E00E948B0773C000
S11329B00E94DA01982F81E08927882309F46AC0EC
S11329C08B819C819093D2068093D1068B819C81CC
S11329D022E1FC0120838B819C8102962B813C8126
S11329E0F9012181622F0E94EE0154C08B819C81E8
S11329F081589F4FFC018081882361F58B819C81E4
S1132A00FC012585368580911608909117082817B2
S1132A103907D1F48B819C81FC01838581708823E3
S1132A2099F08B819C8124E1FC0120838B819C8122
S1132A3080589F4F2BE030E0FC013183208384EDEC
S1132A4096E00E94861527C08B819C8125E1FC01BC
S1132A50208321C08B819C8125E1FC0120831BC044
S1132A608B819C810E94160C8B819C818D579F4F7A
S1132A70FC01208131818B819C81F9010995809130
S1132A80D30681508093D30606C005C0000003C05E
S1132A90000001C0000089819A8101969A8389838C
S1132AA089819A81833091050CF457CF01C00000CD
S1132AB00F900F900F900F90DF91CF910895CF93C7
S1132AC0DF93CDB7DEB70E94DA000E947B150E9427
S1132AD043010E94EB04DF91CF910895CF93DF93DC
S1132AE0CDB7DEB70E9429040E9463050E94CA156F
S1132AF0DF91CF910895CF93DF93CDB7DEB71092D6
S1132B00E2061092E106DF91CF910895CF93DF930F
S1132B1000D0CDB7DEB79A83898389819A810E94D8
S1132B209F15982F81E08927882321F089819A8134
S1132B300E948A160F900F90DF91CF910895CF9342
S1132B40DF9300D000D0CDB7DEB79C838B83809118
S1132B50E1069091E2069A83898310C029813A8123
S1132B608B819C812817390711F481E00CC089817D
S1132B709A81FC01808191819A83898389819A81D8
S1132B80009761F780E00F900F900F900F90DF9106
S1132B90CF910895EF92FF920F931F93CF93DF93FA
S1132BA0CDB7DEB728970FB6F894DEBF0FBECDBF02
S1132BB080911508882309F49FC08FE590E0FC01FB
S1132BC080818D83F894809115088E831092150866
S1132BD08FE590E02D81FC0120838E81882F90E089
S1132BE0A0E0B0E02AE030E040E050E0BC01CD01DC
S1132BF00E940F1DDC01CB0189839A83AB83BC83C4
S1132C003DC08091E1069091E20698878F83809180
S1132C10E1069091E206FC0182819381A481B58151
S1132C2029813A814B815C8179018A01E81AF90A88
S1132C300A0B1B0BD801C70189839A83AB83BC831E
S1132C408091E1069091E206FC018081918190934C
S1132C50E2068093E1068F819885FC0182858130AC
S1132C6021F48F8198850E948A168F819885FC01B2
S1132C70238534858F819885F90109958091E10632
S1132C809091E206009799F08091E1069091E20616
S1132C90FC01228133814481558189819A81AB81F0
S1132CA0BC8182179307A407B50708F0AACF8091C7
S1132CB0E1069091E206009701F16091E1067091BE
S1132CC0E2068091E1069091E206FC0122813381C3
S1132CD04481558189819A81AB81BC8179018A01C2
S1132CE0E81AF90A0A0B1B0BD801C701FB018283FE
S1132CF09383A483B58301C0000028960FB6F8948B
S1132D00DEBF0FBECDBFDF91CF911F910F91FF901A
S1132D10EF900895EF92FF920F931F93CF93DF9359
S1132D20CDB7DEB72A970FB6F894DEBF0FBECDBF7E
S1132D309A8789878091E1069091E206009709F4C9
S1132D4097C01A82198289859A85FC0186819781A8
S1132D50A085B1858B839C83AD83BE838091E1067E
S1132D609091E20698878F834DC08F819885FC01EE
S1132D7022813381448155818B819C81AD81BE81C7
S1132D8082179307A407B507D8F48F819885FC01AF
S1132D9022813381448155818B819C81AD81BE81A7
S1132DA079018A01E81AF90A0A0B1B0BD801C70139
S1132DB02F813885F90182839383A483B58327C047
S1132DC08F819885FC0182819381A481B5812B81B7
S1132DD03C814D815E8179018A01E81AF90A0A0B66
S1132DE01B0BD801C7018B839C83AD83BE838F816A
S1132DF098859A8389838F819885FC01808191814C
S1132E0098878F838F819885009709F0AECF2985A5
S1132E103A858B819C81AD81BE81F9018283938344
S1132E20A483B58389819A81009791F089819A81DD
S1132E30FC012081318189859A85FC0131832083BD
S1132E4089819A8129853A85FC013183208329C0AF
S1132E502091E1063091E20689859A85FC0131834F
S1132E60208389859A859093E2068093E10619C0B0
S1132E7089859A85FC011182108289859A85FC01D5
S1132E8086819781A085B18529853A85F901828358
S1132E909383A483B58389859A859093E20680936E
S1132EA0E1062A960FB6F894DEBF0FBECDBFDF91C0
S1132EB0CF911F910F91FF90EF900895CF93DF93DF
S1132EC000D000D0CDB7DEB79A8389837C836B832F
S1132ED089819A812B813C81B9010E9428020F903B
S1132EE00F900F900F90DF91CF910895CF93DF93C0
S1132EF0CDB7DEB70E944D08DF91CF910895CF93EF
S1132F00DF9300D0CDB7DEB79A83898389819A8114
S1132F10FC018785882361F089819A81FC0187857A
S1132F20803131F089819A81FC018785813251F4A5
S1132F308EE290E02EE230E0F90120812160FC0174
S1132F40208309C08EE290E02EE230E0F901208176
S1132F502E7FFC01208310921E070F900F90DF91AB
S1132F60CF910895CF93DF93CDB7DEB780911E073D
S1132F70882309F05EC08FE197E028E837E048E352
S1132F80F90100802F5F3F4FFC0100820196415000
S1132F904423B1F780911308909114089093130778
S1132FA08093120781E08093140781E080931507D2
S1132FB08091130890911408FFEF8F3F9F0721F42D
S1132FC082E08093160703C083E0809316078FE1A5
S1132FD097E0909318078093170788E38093190765
S1132FE08FE797E190931B0780931A078DE097E092
S1132FF00E947D058BE290E02BE230E0F901308104
S113300020E82327FC0120838EE290E02EE230E0CA
S1133010F90120812E7FFC0120831092F20781E0C8
S113302080931E078FEF9FEF9093140880931308EB
S113303001C00000DF91CF910895CF93DF9300D0BA
S1133040CDB7DEB79A8389838CE290E0FC0180815E
S1133050882F90E08074907021E0009709F420E0BC
S1133060822F80930D088CE290E0FC018081881F00
S11330708827881F80930E0880910D08882379F093
S113308080910F08882359F010920F08809110083E
S11330908F5F8093100881E08093F70715C08091BB
S11330A00E08882389F090910F0881E089278823EE
S11330B059F081E080930F08809110088F5F80930E
S11330C0100881E08093F70780911008883010F091
S11330D01092100882E00E94C30080930A0881E0E5
S11330E00E94C30080930B0880E00E94C300809379
S11330F00C080F900F90DF91CF910895CF93DF9339
S113310000D0CDB7DEB79A83898388E897E090939F
S1133110F4078093F3078091F3079091F40722E07A
S1133120FC01208381E08093F2070E94B2170F9084
S11331300F90DF91CF910895CF93DF93CDB7DEB792
S113314062970FB6F894DEBF0FBECDBF9A8B898B02
S113315088E897E09093F4078093F3078091F3074E
S11331609091F407FC0110828091F607882309F0FE
S11331704DC08091F607813019F481E08093F70700
S11331808091F3079091F40727E0FC0121832091BB
S1133190F3073091F4078FEF90E0A0E0B0E0F9017D
S11331A084AB95ABA6ABB7AB1A82198229C0209128
S11331B0F3073091F40789819A81820F931F029655
S11331C02FEFFC0120832091F3073091F4078981CC
S11331D09A81820F931F42962FEFFC012083209146
S11331E0F3073091F40789819A81820F931F8296A5
S11331F02FEFFC01208389819A8101969A83898328
S113320089819A818031910594F24DC28091F607AB
S1133210843108F04CC08091F607853018F484E1BD
S11332208093F7078091F3079091F407FC011182D2
S11332302091F3073091F4078FEF90E0A0E0B0E025
S1133240F90184AB95ABA6ABB7AB1C821B8229C03A
S11332502091F3073091F4078B819C81820F931F97
S113326002962FEFFC0120832091F3073091F4079D
S11332708B819C81820F931F42962FEFFC01208348
S11332802091F3073091F4078B819C81820F931F67
S113329082962FEFFC0120838B819C8101969C8375
S11332A08B838B819C818031910594F2FCC1809148
S11332B0F6078F3008F04FC08091F6078A3019F472
S11332C081E08093F7078091F3079091F40721E060
S11332D0FC0121832091F3073091F4078EE390E001
S11332E0A0E0B0E0F90184AB95ABA6ABB7AB1E820E
S11332F01D822BC02091F3073091F4078D818295B4
S1133300807F482F41508D819E81820F931F0296AA
S1133310FC0140832091F3073091F4078D819E8155
S1133320820F931F4296FC0110822091F307309183
S1133330F4078D819E81820F931F8296FC01108277
S11333408D819E8101969E838D838D819E818031A6
S1133350910584F2A8C18091F607843108F04DC02C
S11333608091F6078F3019F481E08093F7078091FC
S1133370F3079091F40722E0FC0121832091F307E5
S11333803091F4078AEF90E0A0E0B0E0F90184AB5B
S113339095ABA6ABB7AB18861F8229C02091F30763
S11333A03091F4078F819885820F931F02962FEF37
S11333B0FC0120832091F3073091F4078F819885D5
S11333C0820F931F42962FEFFC0120832091F30775
S11333D03091F4078F819885820F931F82962FEF87
S11333E0FC0120838F819885019698878F838F8134
S11333F098858031910594F256C18091F607893100
S113340008F056C08091F607843119F481E0809366
S1133410F7078091F3079091F40723E0FC012183DF
S11334202091F3073091F40784E690E0A0E0B0E047
S1133430F90184AB95ABA6ABB7AB8091F307909140
S1133440F40720E032E0FC0133AB22AB1A86198684
S113345029C02091F3073091F40789859A85820F5A
S1133460931F02962FEFFC0120832091F3073091E4
S1133470F40789859A85820F931F42962FEFFC01EA
S113348020832091F3073091F40789859A85820F70
S1133490931F82962FEFFC01208389859A850196DC
S11334A09A87898789859A858031910594F2FBC032
S11334B08091F6078E3108F056C08091F607893165
S11334C019F481E08093F7078091F3079091F40752
S11334D024E0FC0121832091F3073091F4078EE36B
S11334E090E0A0E0B0E0F90184AB95ABA6ABB7AB3C
S11334F08091F3079091F40724E030E0FC0133ABB2
S113350022AB1C861B8629C02091F3073091F40757
S11335108B859C85820F931F02962FEFFC012083DD
S11335202091F3073091F4078B859C85820F931FBC
S113353042962FEFFC0120832091F3073091F4078A
S11335408B859C85820F931F82962FEFFC0120832D
S11335508B859C8501969C878B878B859C85803188
S1133560910594F2A0C08091F607833208F04AC016
S11335708091F6078E3119F481E08093F7078091EA
S1133580F3079091F40725E0FC0121832091F307D0
S11335903091F4078EE390E0A0E0B0E0F90184AB51
S11335A095ABA6ABB7AB1E861D8626C02091F3074C
S11335B03091F4078D859E85820F931F0296FC013E
S11335C010822091F3073091F4078D859E85820F38
S11335D0931F4296FC0110822091F3073091F40767
S11335E08D859E85820F931F8296FC0110828D85A6
S11335F09E8501969E878D878D859E858031910558
S1133600ACF251C08091F607883208F04AC080912C
S1133610F607833219F481E08093F7078091F3076A
S11336209091F40726E0FC0121832091F307309167
S1133630F4078EE390E0A0E0B0E0F90184AB95AB31
S1133640A6ABB7AB188A1F8626C02091F30730912A
S1133650F4078F859889820F931F0296FC011082CC
S11336602091F3073091F4078F859889820F931F77
S11336704296FC0110822091F3073091F4078F8564
S11336809889820F931F8296FC0110828F859889F6
S11336900196988B8F878F85988980319105ACF23C
S11336A002C01092F6078091F707882339F00E9430
S11336B0B2178091F70781508093F7078091F6073E
S11336C08F5F8093F60762960FB6F894DEBF0FBE45
S11336D0CDBFDF91CF910895CF93DF9300D0CDB7C5
S11336E0DEB79A83898389819A81FC018781282F97
S11336F030E049815A8188E897E0BA01A9010E9423
S11337002E1D89819A81FC0187818093F10783E0D2
S11337108093E50681E00F900F90DF91CF9108959B
S1133720CF93DF930F92CDB7DEB7898380910808DA
S1133730882F90E029818850984FFC01208381E0F4
S1133740809309080F90DF91CF910895CF93DF9371
S1133750CDB7DEB781E090E09093E4068093E30672
S11337608091E3069091E4060E941B0586E496E4AA
S11337700E9431058BE08093080816C080910808E8
S11337800E949A01109209080E944A0202C00E94F3
S11337906E159091090881E089278823C1F78091EB
S11337A008088F5F80930808809108088B3130F3F4
S11337B08DE00E949A0181E00E9488012CE63BE1A1
S11337C081E0B9010E94470584EF91E0A0E0B0E0F8
S11337D08093EC069093ED06A093EE06B093EF066B
S11337E081E08093F0068CE998E19093F20680934F
S11337F0F10686EE96E00E94861588EA91E6A0E03E
S1133800B0E08093060790930707A0930807B0934E
S1133810090781E080930A078EE798E190930C07EB
S113382080930B0780E097E00E9486158AEF90E072
S1133830A0E0B0E08093F9069093FA06A093FB060B
S1133840B093FC0681E08093FD068DE198E19093AE
S1133850FF068093FE0683EF96E00E94861583E3BD
S113386090E023E330E0F90120812160FC01208312
S113387084E390E024E330E0F90120812E7FFC0111
S113388020838AE290E02AE230E0F9012081206876
S1133890FC0120838BE290E02BE230E0F9012081EF
S11338A02F77FC0120838DE290E02DE230E0F901D6
S11338B020812160FC0120838EE290E02EE230E042
S11338C0F90120812E7FFC0120830E94B2008DE249
S11338D090E02DE230E0F90120812F7BFC01208370
S11338E08EE290E02EE230E0F90120812F7BFC0192
S11338F020838EE290E02EE230E0F9012081206402
S1133900FC0120838DE290E02DE230E0F90120817A
S11339102F77FC0120838EE290E02EE230E0F90163
S113392020812F77FC0120838EE290E02EE230E0AC
S1133930F90120812068FC01208380E390E020E3EA
S113394030E0F90120812860FC01208381E390E0CC
S113395021E330E0F90120812860FC0120831092EA
S1133960F5078FE780930A088FE780930B088FE7AA
S113397080930C081092F6078FEF9FEF9093140832
S1133980809313081092120810921108DF91CF91BE
S11339900895CF93DF93CDB7DEB78091E506882FE6
S11339A090E0009721F08130910549F006C00E9413
S11339B0A61B81E08093E50603C0000001C000005F
S11339C0DF91CF910895CF93DF93CDB7DEB70E94F7
S11339D05F1501C000000E946E150E94C91C8091F1
S11339E0110890911208019690931208809311087F
S11339F0809111089091120821E6893A920750F3B8
S1133A00109212081092110884E390E024E330E04D
S1133A10F901308121E02327FC012083DBCF629F61
S1133A20D001739FF001829FE00DF11D649FE00DB2
S1133A30F11D929FF00D839FF00D749FF00D659F13
S1133A40F00D9927729FB00DE11DF91F639FB00D12
S1133A50E11DF91FBD01CF0111240895FB01DC0113
S1133A6002C001900D9241505040D8F70895F89447
S1053A70FFCF82
S9030000FC
