S01200004D6F64756C65546573742E737265630C
S11300000C9490000C94B0000C94B0000C94B000CC
S11300100C94B0000C94B0000C94B0000C94B0009C
S11300200C94B0000C94B0000C94B0000C94B0008C
S11300300C94B0000C94E6020C94B0000C94B00044
S11300400C94B0000C94B0000C94B0000C94B0006C
S11300500C94B0000C94B0000C94B0000C94B0005C
S11300600C94B0000C94B0000C94B0000C94B0004C
S11300700C94B0000C94B0000C94B0000C94B0003C
S11300800C94B0000C94B0000C94B0000C94B0002C
S11300900C9411030C94F5020C94B0000C94B00071
S11300A00C94B0000C94B0000C94F6000C9407016E
S11300B00C94B0000C94B0000C94B0000C94B000FC
S11300C00C94B0000C94B0000C94B0000C94B000EC
S11300D00C94B0000C94B0000C94B0000C94B000DC
S11300E00C94B0000C94B0000C94B0000C94B000CC
S11300F00C9404020C94F1010C94B0000C94B9011A
S11301000C94B0000C94B0000C94B0000C94B000AB
S11301100C94B0000C94B0000C94B0000C94B0009B
S113012011241FBECFEFD1E4DEBFCDBF12E0A0E0AB
S1130130B2E0E2E9F9E100E00BBF02C007900D92E2
S1130140A230B107D9F71BBE1AE0A2E0B2E001C0A9
S11301501D92AA3BB107E1F70E94260B0C94C70C31
S11301600C940000E82FF92FC62FD72FA191BFB709
S1130170F89448E05C9AA7FD01C05C98A7FD00C014
S1130180219749F021960000AA0F4A955C9891F7AF
S1130190A1912197EECF00005C987894BFBF089599
S11301A02FEF2DB98EB9089514BE88E10FB6F894D7
S11301B080936000109260000FBE78940E94E1006A
S11301C008951092AB0A80E29EE49093A900809374
S11301D0A800E1EAF0E088E0808380818260808387
S11301E0E2E7F0E080818260808308951F920F929D
S11301F00FB60F9211248F938091AB0A8F5F809377
S1130200AB0A8F910F900FBE0F901F9018951F92FD
S11302100F920FB60F9211248F9381E08093020204
S11302208F910F900FBE0F901F90189593E09093AD
S1130230420180934201909141019F718917D9F73E
S1130240089580910D02882311F086E101C088E0B1
S11302500E9416010895E9E3F1E0808181608083C2
S113026088E00E941601EEE6F1E0808180628083DE
S113027080818F7E80838FEF80934F01EEE4F1E0E5
S1130280808188608083808180648083ECE4F1E0F5
S113029080818068808381E180936D0110920702E0
S11302A010920D0281E08093060208959091070256
S11302B098609093070280930D020895909107022D
S11302C09160909307028093080208952091070299
S11302D022602093070290930A02809309020895F2
S11302E02091070224602093070290930C028093CC
S11302F00B02089580910602813049F481E090E078
S113030020910702222329F480E090E0089581E0FF
S113031090E008951F93CF93DF9300D0CDB7DEB75D
S1130320182F89E169839A830E9416016981862FB7
S11303308E5F80938001E12F9A81F92FA1E8B1E0CB
S113034002C081918D938E2F811B8617D0F382E09A
S11303508093420183E0809306020F900F90DF9117
S1130360CF911F91089580910702806480930702C2
S113037008951F920F920FB60F920BB60F9211248D
S11303802F933F934F935F936F937F938F939F9399
S1130390AF93BF93EF93FF93809141018F718931A4
S11303A069F489E00E94160184E08093060280913A
S11303B0420182958695877080930502FF91EF91A3
S11303C0BF91AF919F918F917F916F915F914F9169
S11303D03F912F910F900BBE0F900FBE0F901F9067
S11303E018951F920F920FB60F9211248F9380913C
S11303F047018093040287E0809306028F910F9057
S11304000FBE0F901F9018951F920F920FB60F9268
S113041011248F9389E08093420180914701809356
S1130420040280917B018093030285E0809306029D
S11304308F910F900FBE0F901F9018951F93CF931D
S1130440DF9300D000D00F92CDB7DEB780910602C3
S1130450843009F45CC0853020F4813009F0ADC0EB
S113046007C0853009F467C0873009F0A6C089C089
S113047010910702112309F4A0C088E00E9416011C
S113048010FF09C0909108029F7180914801807EFD
S1130490892B809348018091070281FF08C08091D5
S11304A009028093620180910A0280936301809122
S11304B0070282FF08C080910B0280936001809143
S11304C00C02809361018091070286FF17C080911E
S11304D04E01877F80934E0180914E018F7B8093E4
S11304E04E0180914E01806180934E0186E00E940E
S11304F016011092470186E080930602809107025C
S113050086FD02C00E9421011092070256C080910C
S113051005020E947309809141018F718930D9F7D6
S113052047C0FC01E058FE4F2081825F9D4FFC01D3
S113053020834F5F01C040E020910302842F90E0AC
S113054030E0281739076CF78EE092E09A838983AC
S11305508091030282508B83E0910302F0E0E25F1A
S1130560FD4F80818C83809104028A558D83CE0156
S113057001960E947306809141018F718930D9F7E9
S113058017C0809104028A550E94250B8FEF809337
S11305904F0180914E01886080934E0180914E01FD
S11305A0806480934E0180914E018F7E80934E0132
S11305B081E0809306020E9421010F900F900F901A
S11305C00F900F90DF91CF911F9108951F920F927A
S11305D00FB60F9211248F9381E080938E028F9136
S11305E00F900FBE0F901F9018951F920F920FB689
S11305F00F920BB60F9211248F93EF93FF9381E028
S113060080939002E9ECF0E080818F7D8083FF91FC
S1130610EF918F910F900BBE0F900FBE0F901F9014
S113062018951F920F920FB60F920BB60F921124CA
S11306302F933F934F938F939F93EF93FF938091C7
S1130640C8004091CE008C71B1F520919702309191
S1130650980280919502909196022817390759F1D2
S1130660E0919902F0919A02809193029091940200
S1130670E80FF91F408301969093940280939302AC
S11306802091930230919402809195029091960268
S11306902817390721F41092940210929302809142
S11306A097029091980201969093980280939702F2
S11306B081E080938F02FF91EF919F918F914F91F1
S11306C03F912F910F900BBE0F900FBE0F901F9074
S11306D018951092B00A1092B10AECEAFAE011826D
S11306E0108217821682118610861386128615864A
S11306F014860E94AF080E944E060E9468040E945D
S1130700C1030E94F60408959093AD0A8093AC0A45
S11307100E94700108959093AF0A8093AE0A0E94DC
S113072066010895E82FF0E0EE0FFF1FEE54F54F39
S11307307183608308950E94A3060E948F090E941A
S1130740DB030895E0919B02F0919C0215C0228185
S113075033812817390769F4DC01A158BF4F2C9164
S11307602787DC01AE57BF4F2C91208B22E02483D6
S113077005C00190F081E02D309749F70E9499045B
S1130780089510929C0210929B020895FC01148219
S113079017861382128280919B0290919C0200978B
S11307A019F41182108202C091838083F0939C0219
S11307B0E0939B0208950F931F93CF93DF93E091EF
S11307C09B02F0919C02EF017BC08C81882321F075
S11307D0823009F072C058C08C850E9479048C0163
S11307E0009721F482E08C838F876DC09B838A837A
S11307F081E08C83F801ED57FF4F82EA93E0918307
S11308008083F801EE57FF4F998581E092FF80E0E5
S1130810808399859170F80183858E7F892B8387E6
S1130820998581E093FF80E0982F990F990FF80143
S113083083858370892B83878091B00A8F5F80932F
S1130840B00A84878091AC0A9091AD0A9687858717
S11308508D819E81908B878798859F708189807F09
S1130860892B818B9F819295907F8F70892B818BAF
S1130870C80142964C856A857B8550E00E94950CA0
S1130880C8010E94CA081FC0EC17FD0741F4888103
S1130890998190939C0280939B020AC0FC01808101
S11308A091818C179D07D1F78881998191838083E9
S11308B0ED85FE85CE01099506C00990D881C02D2D
S11308C0209709F082CFDF91CF911F910F91089566
S11308D010929D02109222031092A70310922C04EE
S11308E01092B104109236051092BB051092400686
S11308F00895EDE9F2E020E030E09081992379F465
S113090045E850E0249FF001259FF00D349FF00D41
S11309101124E356FD4F805F8183CF0108952F5F3B
S11309203F4FEB57FF4F2830310539F780E090E017
S11309300895FC0110820895482F50E025E830E026
S1130940429FC001439F900D529F900D11248356E6
S11309509D4F0895FC01DC01A158BF4F1C92DC019E
S1130960A058BF4F1D921C92DC01AE57BF4F1C9282
S1130970DC01AD57BF4F11961C921E9213868091D5
S1130980B00A8F5F8093B00A84878091AC0A9091FB
S1130990AD0A96878587108A1786118A0895E5EC33
S11309A0F6E020E0408151814817590759F430E0BE
S11309B0C901880F991F820F931F880F991F8B53AA
S11309C0994F08952F5F3696243661F72FEF8F3FA6
S11309D0920719F487E199E0089580E090E0089582
S11309E00E94990408950E9499040895E5ECF6E0A4
S11309F024E68FEF9FEF9183808321503696222344
S1130A00D1F708950E94CF04009729F02FEF3FEF0C
S1130A10FC01318320830895EF92FF920F931F937B
S1130A20CF93DF93EC0109851A8517FF05C08D85E7
S1130A309E850817190751F58D819E812FEF8F3FF1
S1130A40920721F1ED84FE84C7010E94CF04FC01CA
S1130A50009769F0828193818017910799F0DE01F4
S1130A60A158BF4F9C918581891760F407C08FEF0F
S1130A709FEF0E94CF04FC01F182E0821383028382
S1130A8083E08483C158DF4F88818583DF91CF91D0
S1130A901F910F91FF90EF9008950F931F93CF93A1
S1130AA0DF9300D000D000D0CDB7DEB78C01DC01DD
S1130AB01F968D919C9150970E94CF04FC01009742
S1130AC0D1F1D801A158BF4F8C91882319F483E048
S1130AD084830AC0848181508483882329F48FEF1E
S1130AE09FEF9183808327C0CF01855C9640863039
S1130AF091050CF1CE010196AF014650504026E01D
S1130B00DA010D90AD01DC010D92CD012150C1F748
S1130B10CF010697AF0126E0DA010D90AD01DC01AB
S1130B200D92CD012150C1F7DE01119686E00D90A2
S1130B3001928150E1F726960FB6F894DEBF0FBEFE
S1130B40CDBFDF91CF911F910F9108952FEF8F3F6C
S1130B509207F1F0E5ECF6E040E050E020813181CD
S1130B602817390761F4FA01EE0FFF1FE40FF51F90
S1130B70EE0FFF1FEB53F94F8281938108954F5F6E
S1130B805F4F36964436510549F78FEF9FEF08952E
S1130B908FEF9FEF0895CF92DF92EF92FF920F9322
S1130BA01F93CF93DF938C01FC01C784D088C601C7
S1130BB00E94A605FFEF8F3F9F0781F0F801ED57D4
S1130BC0FF4F83EF94E091838083F801EE57FF4F4A
S1130BD082E08083C8010E94CA0820C0F801E5842D
S1130BE0F68485E00E947904EC010097A1F00E944C
S1130BF0AA04FE01ED57FF4F80EF94E091838083B8
S1130C00F88AEF8681E08A8BFC8AEB8ADE8ACD8AB9
S1130C10CE010E94CA08C8010E949904DF91CF91B5
S1130C201F910F91FF90EF90DF90CF900895DC011A
S1130C301596ED91FC911697838194810E9402058B
S1130C4008950E9499040895E1E2F9E04AE050E031
S1130C50208131812115310529F021503040318323
S1130C60208351E041503596442391F7552311F0E8
S1130C700E94770A0895DC011596ED91FC91169770
S1130C802081222319F40E944F0904C0213021F449
S1130C900E94170681E0089580E00895E1E2F9E0FA
S1130CA08AE011821082815035968823D1F7109200
S1130CB0500984E190E0A0E0B0E08093570990935C
S1130CC05809A0935909B0935A0910925B0984E218
S1130CD096E090935D0980935C0980E06BE376E095
S1130CE00E9492030895CF93DF93EC01E881F98188
S1130CF08181883829F58081813611F0813401F5AC
S1130D008A818031E8F080510E9479040097C1F013
S1130D1020E2FC0120832B81E158FF4F20832C81AA
S1130D20FC01E058FF4F208302964A816881798153
S1130D3050E00E94950C809150098F5F8093500978
S1130D40DF91CF9108958F929F92AF92BF92CF92ED
S1130D50DF92EF92FF920F931F93CF93DF93CDB760
S1130D60DEB72A970FB6F894DEBF0FBECDBF8091D1
S1130D705009882309F4ADC1DD2444E2C42E51E2B4
S1130D80852E56E0952E62E2B62E73E2A72E8D2DA7
S1130D900E949C047C01DC018C91823209F4D9C04C
S1130DA0833220F4803209F08FC107C0833209F402
S1130DB07FC1843209F088C17FC1F701C082878571
S1130DC09089FFEF8F3F9F0731F4D7011B968C91D9
S1130DD01B9780FD79C12091AC0A3091AD0AF701CF
S1130DE0858596852817390709F46EC1838581FDA9
S1130DF06BC1C7010E940C05EEE1F9E040E050E050
S1130E006FEF238134812115310581F1D7011D96BE
S1130E108D919C911E97208131818217930739F51A
S1130E201C968C91FA01EE0FFF1FEE0FFF1FE40FCB
S1130E30F51FE25EF64F9281B82FB91B1B1634F4EE
S1130E40828385E690E09483838339C02091AC0A41
S1130E503091AD0AF701878190852817390709F089
S1130E6033C1878590890E9402052EC1642F4F5F8C
S1130E705F4F35964A30510521F66F3F09F424C17E
S1130E80862F992787FD9095FC01EE0FFF1FEE0F2B
S1130E90FF1FE80FF91FE25EF64FD7011D968D91F3
S1130EA09C911E97918380831C968C91828385E606
S1130EB090E09483838381E599E00E94770AF701A7
S1130EC087819085FFEF8F3F9F07D9F42091AC0A6B
S1130ED03091AD0AD7011F968D919C915097281798
S1130EE0390779F015968D919C911697BFEF8F3F36
S1130EF09B0739F0F701838582FD03C0C7010E9477
S1130F0007098091AC0A9091AD0AD7011F962D91E3
S1130F103C9150978217930721F0BFEF2F3F3B0777
S1130F2019F4F701B082D0C0D70117962D913C91E6
S1130F3018978217930709F0C7C015968D919C9155
S1130F401697BFEF8F3F9B0709F4BEC0F701A0823D
S1130F50BBC010921D09D70151968C91519782956F
S1130F608F70E82FF0E0E530F1050CF05EC0EE0F75
S1130F70FF1FEE54F54F408151814115510509F48D
S1130F8054C01D962D913C911E973A832983519606
S1130F909C9151979F709B838C83C70142969F833A
S1130FA08E8311968C91119780518887F701E158AF
S1130FB0FF4F80818987F701E058FF4F80818A873E
S1130FC0F7017385672F637072FF02C080E201C06E
S1130FD080E0762F782BD7011F968D919C915097A6
S1130FE0BFEF8F3F9B0711F464E001C060E0672B03
S1130FF0F701818592852817390711F498E001C01B
S113100090E0692BD70115968D919C911697BFEFAF
S11310108F3F9B0711F480E101C080E0862B8D8314
S1131020CE010196FA01099501C080E0F7012781FC
S11310303085FFEF2F3F3F0771F461E070E02091AE
S1131040AC0A3091AD0AD7011F964D915C9150972F
S11310502417350711F060E070E0F701938590FFE5
S113106002C0882319F461157105F9F083E00E9428
S113107079048C010097C9F00E94AA04F801ED5785
S1131080FF4F91828082D7011D968D919C911E976E
S1131090F801908B8787128A80911D09848B1C9696
S11310A08C91838BC8010E94CA08D701CC920CC0D2
S11310B0C7010E94CB0503C0C7010E949904809117
S11310C05009815080935009D394B8E0DB1609F09D
S11310D05ECE2A960FB6F894DEBF0FBECDBFDF9169
S11310E0CF911F910F91FF90EF90DF90CF90BF9021
S11310F0AF909F908F9008950E9499040895EF9265
S1131100FF921F93CF93DF937C0180916009882322
S113111001F1C0E0D5E110E18C2F0E949C04DC01B8
S11311208C91843181F4FD01E058FF4F208131819D
S113113021503040318320832115310521F4DC9383
S1131140A158BF4F1C93CF5FC83031F7C7010E942D
S1131150770ADF91CF911F91FF90EF90089510923D
S11311605F0910925E091092600982E390E0A0E0AA
S1131170B0E08093670990936809A0936909B093DC
S11311806A0910926B098FE798E090936D09809338
S11311906C090895CF93DF93EC01FC01EE57FF4FE8
S11311A0808191E19883FE01E158FF4F108280FF16
S11311B003C08FEF9FEF04C08091AE0A9091AF0AF5
S11311C09E838D838F8598890E94A60598878F8337
S11311D02091AC0A3091AD0A3A8729872091B10A4F
S11311E02F5F2093B10A2C832FEF8F3F920719F4BE
S11311F081E498E802C081E698E89B838A83809121
S113120060098F5F80936009DF91CF9108950F93F8
S11312101F93CF93DF938C01FC01818180510E9445
S11312207904EC010097B1F1FC01ED57FF4F8CE715
S113123098E091838083CE010296F8014181B80140
S11312406E5F7F4F50E00E94950C81E18883FE0120
S1131250E158FF4F108281E498E89B838A838FEFE3
S11312609FEF98878F838091AE0A9091AF0A9E83F7
S11312708D838091AC0A9091AD0A9A878987809179
S1131280B10A8F5F8093B10A8C83809160098F5F6C
S113129080936009DF91CF911F910F9108951F935F
S11312A0CF93DF93FC01C581D681809160098823A7
S11312B0B1F010E0812F0E949C04FC0180818431F4
S11312C059F494858981981739F485E180838A815A
S11312D0EE57FF4F808303C01F5F183059F7DF912B
S11312E0CF911F910895E0915E09F0915F098330D9
S11312F030F0833031F0853031F481E205C080E094
S113130003C080E201C081E0DF01A158BF4F8C938C
S113131083E1808310925F0910925E090895CF9251
S1131320DF92EF92FF920F931F93CF93DF938091FD
S11313306009882309F455C010E005E184E1F82E22
S11313409BE0C92ED12C22E1E22E812F0E949C0425
S1131350EC018881833199F0853179F18131E9F5A6
S11313600E947A018823C9F5D0935F09C0935E096E
S1131370E882CE01029669810E948A012EC0FE0194
S1131380E158FF4F80818823B1F42D853E858091FB
S1131390AC0A9091AD0A2817390769F48B8580FF50
S11313A00AC0F882C058DF4FD982C88281E699E02A
S11313B00E94770A12C0088310C0CE010E944D0516
S11313C0FE01ED57FF4F0190F081E02DCE0109950C
S11313D0809160098150809360091F5F183009F083
S11313E0B4CFDF91CF911F910F91FF90EF90DF90D9
S11313F0CF9008950E94D4000E94610A0E942B019C
S11314000E94690308950E941E020E949B030E9489
S1131410840A08950F931F93CF93DF93FC010091E7
S11314206E0910916F093681278190858185011598
S11314301105C1F1432F522F692F782FE80120E0C5
S113144030E001C0EC018A819B81AC81BD814817E9
S113145059076A077B0748F4841B950BA60BB70B47
S11314608A839B83AC83BD8309C0481B590B6A0BD9
S11314707B0B888199819E01009721F742835383D6
S1131480648375832115310551F0D9018D919C91A7
S11314901197918380831196FC93EE930DC0118371
S11314A0008306C011821082328323839483858350
S11314B0F0936F09E0936E09DF91CF911F910F9123
S11314C0089510926F0910926E090895E0916E09C3
S11314D0F0916F0906C0E817F90739F00190F0811F
S11314E0E02D3097C1F780E0089581E00895CF930F
S11314F0DF93EC010E94660A882319F4CE010E944E
S11315000A0ADF91CF910895CF92DF92EF92FF9272
S1131510CF93DF938091AB0A882309F43EC08FB741
S1131520F8946091AB0A1092AB0A8FBF70E080E030
S113153090E02AE030E040E050E00E94760C6B013D
S11315407C0114C0C81AD90AEA0AFB0A8881998165
S113155090936F0980936E098A85813019F4CE01C6
S11315600E940A0AEB85FC85CE010995C0916E099B
S1131570D0916F09209789F08A819B81AC81BD81CC
S1131580C816D906EA06FB06E8F68C199D09AE09C9
S1131590BF098A839B83AC83BD83DF91CF91FF9086
S11315A0EF90DF90CF9008951092BD098091AA0921
S11315B09091AB0901969093AB098093AA09089581
S11315C0CF93DF9386E799E060E370E00E94B20076
S11315D0E6E7F9E0EF012196DF01129680818C5F46
S11315E0808388818C5F88838C918C5F8C93339605
S11315F02396139689E0A83AB80781F7DF91CF9133
S113160008950F931F93CF93DF93EC010FEB19E031
S11316104F816D817E81C80150E00E94950C10932A
S113162075090093740986E08093000282E0809338
S113163073098BB180588BB989858093AA0A81E09C
S1131640DF91CF911F910F91089508950E94FA0997
S113165080EEE82E8AE0F82EC5E5DAEA1FEF9FEB6C
S1131660C92E99E0D92E24EDA22E2AE0B22E0E9492
S1131670030A80917309882321F0823009F017C18D
S1131680ABC0F999FECF0FB7F89480E090E065E025
S113169070E00E94A40C80E090E00E949E0C909365
S11316A0AF098093AE090FBF8091AE099091AF0945
S11316B00E94840386E496E40E948B038FE00E94D8
S11316C05E010E94B30181E00E94560181E061E065
S11316D07BE00E9492038AEF90E0A0E0B0E0809368
S11316E0B6099093B709A093B809B093B90981E0FA
S11316F08093BA09F092BC09E092BB0980EB99E0AF
S11317000E94770A989AA098579A5F98249A2C98DE
S1131710549A5C986C9A74986D9A75986E9A7698A7
S11317206F9A77981092A7091092A6091092AB09A4
S11317301092AA091092AD091092AC091092A9094D
S11317401092A8091092700988E799E0FC01329779
S1131750C083FC013197D083FC0110830396F9E028
S1131760883A9F0799F7C29760E370E00E94B2003D
S11317701092BD0922E02093BE098091AE098093A6
S1131780BF091092C0098091BF099091C00990933C
S11317902D0A80932C0A8FEF9FEF90939F0A8093DA
S11317A09E0A80E18093A00A8093A10A1092A20A63
S11317B0D092A40AC092A30A2093A50AB092A70AC1
S11317C0A092A60A89E99AE00E94C6031092BE0973
S11317D081E08093BD0969C0E0917409F0917509B5
S11317E09081992399F49181992321F481E0809344
S11317F070095AC0933009F057C08093700986E786
S113180099E060E370E00E94B2004EC0913009F4A8
S11318104BC08091A6099091A70901969093A709BE
S11318208093A60921E6893A920740F01092A7090D
S11318301092A6098EB190E189278EB98091A809EA
S11318409091A90901969093A9098093A8098230DF
S1131850910538F01092A9091092A8098EB1805808
S11318608EB98091AA099091AB098230910540F01C
S11318701092AB091092AA098EB190E289278EB911
S11318808091AC099091AD0901969093AD09809334
S1131890AC098230910540F01092AD091092AC0968
S11318A08EB190E489278EB981E080937309809189
S11318B0710990917209019690937209809371094C
S11318C0E1E6893A9E0758F0109272091092710964
S11318D084B391E0892784BB8BB180588BB98FEF97
S11318E00E94D00080E00E94D000C1CE629FD0014F
S11318F0739FF001829FE00DF11D649FE00DF11DC7
S1131900929FF00D839FF00D749FF00D659FF00D75
S11319109927729FB00DE11DF91F639FB00DE11D62
S1131920F91FBD01CF0111240895FB01DC0102C0A0
S113193001900D9241505040D8F70895A8E1B0E0CD
S113194042E050E00C94AB0C0E94B90C272F0C948D
S1131950BA0CDC01CB01FC01F999FECF06C0F2BD43
S1131960E1BDF89A319600B40D9241505040B8F759
S11319700895262FF999FECF1FBA92BD81BD20BDCF
S11319800FB6F894FA9AF99A0FBE01960895F8944E
S1051990FFCF83
S105199203004C
S9030000FC
