:100000000C9490000C94B0000C94B0000C94B000D0
:100010000C94B0000C94B0000C94B0000C94B000A0
:100020000C94B0000C94B0000C94B0000C94B00090
:100030000C94B0000C94A8030C94B0000C94B00085
:100040000C94B0000C94B0000C94B0000C94B00070
:100050000C94B0000C94B0000C94B0000C94B00060
:100060000C94B0000C94B0000C94B0000C94B00050
:100070000C94B0000C94B0000C94B0000C94B00040
:100080000C94B0000C94B0000C94B0000C94B00030
:100090000C94EB030C94BD030C94B0000C94B000D2
:1000A0000C94B0000C94B0000C940F010C94260139
:1000B0000C94B0000C94B0000C94B0000C94B00000
:1000C0000C94B0000C94B0000C94B0000C94B000F0
:1000D0000C94B0000C94B0000C94B0000C94B000E0
:1000E0000C94B0000C94B0000C94B0000C94B000D0
:1000F0000C9464020C94B0000C94B0000C94200298
:100100000C94B0000C94B0000C94B0000C94B000AF
:100110000C94B0000C94B0000C94B0000C94B0009F
:1001200011241FBECFEFD1E4DEBFCDBF12E0A0E0AF
:10013000B2E0ECE2FDE300E00BBF02C007900D92DD
:10014000A630B107D9F71BBE1BE0A6E0B2E001C0A4
:100150001D92AB34B107E1F70E94421D0C94941E2E
:100160000C940000E82FF92FA62FB72F11962FB768
:10017000F894319148E0739A000037FD01C07398FC
:1001800037FD00C00000119741F01196330F4A95DA
:10019000739889F731911197EDCF000073982FBFB5
:1001A00078940895CF93DF93CDB7DEB784E590E0E0
:1001B000FC01108288E10FB6F894809360001092E1
:1001C00060000FBE78940E94E800DF91CF910895FF
:1001D000CF93DF93CDB7DEB710923C0B88EA90E067
:1001E00020E23EE4FC013183208381EA90E028E0B4
:1001F000FC01208381EA90E021EA30E0F9012081CE
:100200002260FC01208382E790E022E730E0F901E0
:1002100020812260FC012083DF91CF9108951F92FD
:100220000F920FB60F9211248F93CF93DF93CDB718
:10023000DEB780913C0B8F5F80933C0BDF91CF91B9
:100240008F910F900FBE0F901F9018951F920F92D5
:100250000FB60F9211248F93CF93DF93CDB7DEB7F4
:1002600081E080930602DF91CF918F910F900FBEB6
:100270000F901F901895CF93DF93CDB7DEB789E32A
:1002800091E0FC0120812160FC01208388E00E9434
:100290000A038EE691E0FC0120812062FC012083AC
:1002A0008EE691E0FC0120812F7EFC0120838FE40B
:1002B00091E02FEFFC0120838EE491E0FC0120818E
:1002C0002860FC0120838EE491E0FC012081206401
:1002D000FC0120838CE491E0FC0120812068FC017A
:1002E00020838DE691E021E1FC012083109207023A
:1002F00010920D0281E080930E02DF91CF9108955C
:10030000CF93DF930F92CDB7DEB789838091070239
:10031000886080930702898180930D020F90DF919E
:10032000CF910895CF93DF930F92CDB7DEB7898336
:10033000809107028160809307028981809308027F
:100340000F90DF91CF910895CF93DF9300D0CDB779
:10035000DEB79A83898380910702826080930702C7
:1003600089819A8190930A02809309020F900F90DD
:10037000DF91CF910895CF93DF9300D0CDB7DEB753
:100380009A83898380910702846080930702898120
:100390009A8190930C0280930B020F900F90DF9143
:1003A000CF910895CF93DF93CDB7DEB780910E0242
:1003B000813021F480910702882319F081E090E0D8
:1003C00002C080E090E0DF91CF910895CF93DF935A
:1003D00000D000D0CDB7DEB79B838A836C8389E1E0
:1003E0000E940A0380E891E02C812E5FFC012083AB
:1003F000198213C08981882F90E08F579E4F2981E1
:10040000222F30E04A815B81240F351FF9012081C2
:10041000FC01208389818F5F898399818C81981762
:1004200048F382E491E022E0FC01208383E08093A2
:100430000E020F900F900F900F90DF91CF910895C3
:100440001F920F920FB60F9200905B000F92112433
:100450002F933F934F935F936F937F938F939F93CC
:10046000AF93BF93EF93FF93CF93DF93CDB7DEB7F7
:1004700081E491E0FC0180818F71893179F489E018
:100480000E940A0384E080930E0282E491E0FC0162
:10049000808182958695877080930F02DF91CF913E
:1004A000FF91EF91BF91AF919F918F917F916F914C
:1004B0005F914F913F912F910F9000925B000F90B1
:1004C0000FBE0F901F9018951F920F920FB60F92AC
:1004D00000905B000F9211242F938F939F93EF93C3
:1004E000FF93CF93DF93CDB7DEB782E491E029E0AD
:1004F000FC01208387E491E0FC018081809310025D
:100500008BE791E0FC0180818093110285E080936C
:100510000E02DF91CF91FF91EF919F918F912F91DB
:100520000F9000925B000F900FBE0F901F901895D8
:10053000CF93DF93CDB7DEB780910D02882321F0F2
:1005400086E10E940A0303C088E00E940A03DF914B
:10055000CF910895CF93DF9300D000D0CDB7DEB711
:1005600088E00E940A0380910702882F90E0817042
:100570009070882361F088E491E0209108022F7147
:100580002F71FC013081307E232BFC012083809170
:100590000702882F90E0827090700097A1F089E0A8
:1005A00092E09A83898382E691E029813A81F90178
:1005B0002081FC01208383E691E029813A81F901C1
:1005C0002181FC01208380910702882F90E08470B4
:1005D00090700097A1F08BE092E09C838B8380E683
:1005E00091E02B813C81F9012081FC01208381E68F
:1005F00091E02B813C81F9012181FC0120830E9443
:100600009802109207020F900F900F900F90DF91B9
:10061000CF910895CF93DF930F92CDB7DEB7898343
:1006200082E491E023E0FC01208382E491E02981CF
:10063000FC012083000081E491E0FC0180818F7146
:10064000982F89819817B9F70F90DF91CF9108956E
:10065000CF93DF9300D000D000D0CDB7DEB780912C
:100660000E02882F90E08430910579F08530910555
:10067000F1F08130910509F05FC080910702882375
:1006800009F45CC00E94AA0259C080910F020E9426
:100690000611000081E491E0FC0180818F718930B6
:1006A000C9F781E080930E020E94980248C0198227
:1006B00011C08981882F90E02981222F30E02058B5
:1006C0003E4FF90120818E5E9D4FFC012083898180
:1006D0008F5F89838981282F30E080911102882FD4
:1006E00090E001962817390724F382E192E09B837A
:1006F0008A838091110282508C8380911102882F0D
:1007000090E08E5E9D4FFC0180818D838091100270
:100710008A558E83CE0102960E94C00A000081E4B1
:1007200091E0FC0180818F718930C9F781E080936D
:100730000E020E94980203C0000001C0000026962D
:100740000FB6F894DEBF0FBECDBFDF91CF910895F5
:100750001F920F920FB60F9211248F93CF93DF93B6
:10076000CDB7DEB781E080939202DF91CF918F9178
:100770000F900FBE0F901F9018951F920F920FB6FB
:100780000F9200905B000F9211242F933F938F9351
:100790009F93EF93FF93CF93DF93CDB7DEB781E0C5
:1007A00080939D0289EC90E029EC30E0F9012081F2
:1007B0002F7DFC012083DF91CF91FF91EF919F91DD
:1007C0008F913F912F910F9000925B000F900FBE81
:1007D0000F901F9018951F920F920FB60F920090D6
:1007E0005B000F9211242F933F934F938F939F930E
:1007F000EF93FF93CF93DF9300D0CDB7DEB788ECB4
:1008000090E0FC01808189838EEC90E0FC01808186
:100810008A838981882F90E08C7190700097D1F540
:100820002091990230919A028091970290919802BA
:100830002817390771F120919B0230919C02809119
:10084000950290919602280F391F4A81F901408341
:100850000196909396028093950220919502309193
:10086000960280919702909198022817390721F4F7
:1008700010929602109295028091990290919A029C
:10088000019690939A028093990281E080939E0250
:1008900001C000000F900F90DF91CF91FF91EF9179
:1008A0009F918F914F913F912F910F9000925B00FC
:1008B0000F900FBE0F901F901895CF93DF930F925C
:1008C000CDB7DEB71092410B1092420B10923E0B47
:1008D00010923D0B19820EC08981882F90E00396FB
:1008E000880F991F835C944FFC01118210828981CB
:1008F0008F5F89838981843078F30E94050F0E947D
:10090000840A0E94C9060E94E0040E94CD070F904D
:10091000DF91CF910895CF93DF9300D0CDB7DEB7AD
:100920009A83898389819A8190933E0B80933D0BB2
:1009300089819A810E94BB010F900F90DF91CF9126
:100940000895CF93DF9300D0CDB7DEB79A83898324
:1009500089819A819093400B80933F0B89819A8182
:100960000E94A4010F900F90DF91CF910895CF9333
:10097000DF9300D00F92CDB7DEB789837B836A8384
:100980008981882F90E00396880F991F835C944F8C
:100990002A813B81FC01318320830F900F900F90BF
:1009A000DF91CF910895CF93DF93CDB7DEB70E944B
:1009B000680E0E942C110E949306DF91CF9108953A
:1009C000CF93DF93CDB7DEB71092A00210929F02B3
:1009D000DF91CF910895CF93DF9300D0CDB7DEB7ED
:1009E0009A83898389819A81FC01148289819A8101
:1009F000FC01178689819A81FC0113821282809101
:100A00009F029091A002009761F489819A81FC0174
:100A10001182108289819A819093A00280939F0213
:100A20000FC020919F023091A00289819A81FC0120
:100A30003183208389819A819093A00280939F02C1
:100A40000F900F90DF91CF910895CF93DF9300D057
:100A500000D00F92CDB7DEB79D838C838C819D81B2
:100A6000FC018485898389810E94EF069B838A83A8
:100A70008A819B81009759F48C819D8122E0FC0141
:100A800024838C819D8122E0FC012787A9C08C8171
:100A90009D812A813B81FC01338322838C819D814E
:100AA00021E0FC0124838A819B818D579F4F28EF91
:100AB00035E0FC01318320838C819D81FC0181859F
:100AC000882F90E08470907021E0009709F420E076
:100AD0008A819B818E579F4FFC0120838C819D8151
:100AE000FC0181858170282F217021708A819B8172
:100AF0002170FC0133853E7F232BFC0123878C81F1
:100B00009D81FC018185882F90E08870907021E0A4
:100B1000009709F420E08A819B812170220F220F27
:100B2000FC0133853B7F232BFC0123878A819B813A
:100B3000FC0123852770FC0123878091410B8F5F87
:100B40008093410B2091410B8A819B81FC0124877A
:100B500020913D0B30913E0B8A819B81FC013687B1
:100B600025878C819D81FC01258136818A819B812D
:100B7000FC01308B27878C819D81FC018085282F8B
:100B80002F708A819B812F70FC013189307F232B4C
:100B9000FC01218B8C819D81FC018781282F2F7086
:100BA0008A819B812295207FFC0131893F70232B14
:100BB000FC01218B8A819B8142962C813D81F90128
:100BC000428553852C813D81F9012485222F30E017
:100BD000BA01A9010E94471E8A819B810E94260FAB
:100BE0000F900F900F900F900F90DF91CF9108957D
:100BF000CF93DF9300D000D0CDB7DEB79C838B833B
:100C000080919F029091A0029A8389832BC0898151
:100C10009A81FC01228133818B819C8128173907BD
:100C2000D1F48B819C8181589F4FFC012081898167
:100C30009A81FC0127878B819C818E579F4FFC01F5
:100C4000208189819A81FC01208B89819A8122E00F
:100C5000FC0124830BC089819A81FC0180819181F0
:100C60009A83898389819A81009789F68B819C81F7
:100C70000E943C070F900F900F900F90DF91CF9143
:100C80000895CF93DF9300D000D0CDB7DEB79C831B
:100C90008B8320919F023091A0028B819C81281729
:100CA000390761F480919F029091A002FC0180813C
:100CB00091819093A00280939F0225C080919F0212
:100CC0009091A0029A83898307C089819A81FC014F
:100CD000808191819A83898389819A81FC01208115
:100CE00031818B819C812817390779F789819A8115
:100CF000FC0180819181FC012081318189819A816F
:100D0000FC01318320838B819C81FC012585368504
:100D10008B819C81F90109950F900F900F900F9096
:100D2000DF91CF910895CF93DF9300D0CDB7DEB799
:100D300080919F029091A0029A83898321C089812A
:100D40009A81FC018481882F90E08130910581F0A7
:100D50008230910539F0009751F489819A810E947F
:100D6000250512C089819A810E9441060DC001C0EB
:100D7000000089819A81FC01808191819A83898315
:100D800089819A810097D9F60F900F90DF91CF91CA
:100D90000895CF93DF9300D0CDB7DEB71A821982C2
:100DA00014C049815A8125E830E0429FC001439F29
:100DB000900D529F900D11248F559D4FFC01108274
:100DC00089819A8101969A83898389819A81883061
:100DD00091053CF30F900F90DF91CF910895CF9341
:100DE000DF9300D00F92CDB7DEB78B831A821982C2
:100DF00036C049815A8125E830E0429FC001439FB7
:100E0000900D529F900D11248F559D4FFC018081B4
:100E1000882301F58B81682F605F49815A8125E81D
:100E200030E0429FC001439F900D529F900D1124CE
:100E30008E559D4FFC01608349815A8125E830E041
:100E4000429FC001439F900D529F900D11248F55DA
:100E50009D4F0CC089819A8101969A8389838981EB
:100E60009A81883091052CF280E090E00F900F90ED
:100E70000F90DF91CF910895CF93DF9300D0CDB73E
:100E8000DEB79A83898389819A81FC0110820F9051
:100E90000F90DF91CF910895CF93DF930F92CDB74D
:100EA000DEB789838981482F50E025E830E0429FF2
:100EB000C001439F900D529F900D11248F559D4F5F
:100EC0000F90DF91CF910895CF93DF9300D0CDB7EE
:100ED000DEB79A83898389819A8181589F4FFC016B
:100EE000108289819A8180589F4FFC011182108263
:100EF00089819A818E579F4FFC01108289819A8146
:100F00008D579F4FFC011182108289819A81FC01CB
:100F100023852E7FFC01238789819A81FC0123850B
:100F20002D7FFC01238789819A81FC0123852B7FFA
:100F3000FC01238789819A81FC0123852770FC01AC
:100F400023878091410B8F5F8093410B2091410B50
:100F500089819A81FC01248720913D0B30913E0BC1
:100F600089819A81FC013687258789819A81FC01D4
:100F7000108A178689819A81FC012189207FFC01D2
:100F8000218B89819A81FC0121892F70FC01218BA1
:100F90000F900F90DF91CF910895CF93DF930F9231
:100FA000CDB7DEB7198214C08981282F30E0C9017E
:100FB000880F991F820F931F880F991F8753994F8E
:100FC0002FEF3FEFFC013183208389818F5F89837D
:100FD0008981843648F30F90DF91CF910895CF93A4
:100FE000DF9300D00F92CDB7DEB79B838A8319823F
:100FF00024C08981282F30E0C901880F991F820FF2
:10100000931F880F991F8753994FFC0120813181CD
:101010008A819B812817390769F48981282F30E05C
:10102000C901880F991F820F931F880F991F87533B
:10103000994F11C089818F5F898389818436C8F275
:101040008A819B81FFEF8F3F9F0719F48BE199E025
:1010500002C080E090E00F900F900F90DF91CF9151
:101060000895CF93DF9300D000D0CDB7DEB79C8337
:101070008B838B819C810E94EF079A83898389816E
:101080009A81009739F089819A812FEF3FEFFC0117
:10109000318320830F900F900F900F90DF91CF91AD
:1010A0000895CF93DF9300D000D000D0CDB7DEB746
:1010B0009E838D838D819E8102969C838B838B8101
:1010C0009C81FC0187819085992374F48B819C819C
:1010D000FC01278130858B819C81FC01838594856F
:1010E0002817390709F06AC08B819C81FC01838134
:1010F0009481FFEF8F3F9F0709F462C08B819C8131
:10110000FC01838594850E94EF079A8389838981F6
:101110009A81009749F189819A81FC01228133816A
:101120008B819C81FC018781908528173907D9F133
:101130008D819E8181589F4FFC01208189819A81F8
:10114000FC018581821778F58B819C81FC012781C8
:10115000308589819A81FC013383228389819A8138
:1011600023E0FC0124831FC08FEF9FEF0E94EF0755
:101170009A8389838B819C81FC01238534858981B5
:101180009A81FC01318320838B819C81FC01278122
:10119000308589819A81FC013383228389819A81F8
:1011A00023E0FC0124838D819E8181589F4FFC01A7
:1011B000208189819A81FC01258303C0000001C040
:1011C000000026960FB6F894DEBF0FBECDBFDF91AC
:1011D000CF910895CF93DF93CDB7DEB72C970FB69D
:1011E000F894DEBF0FBECDBF9C878B878B859C8517
:1011F000FC01878590890E94EF079A838983898102
:101200009A81009709F465C08B859C8581589F4F12
:10121000FC018081882331F489819A8123E0FC01DB
:10122000248318C089819A81FC018481282F215050
:1012300089819A81FC01248389819A81FC018481BE
:10124000882341F489819A812FEF3FEFFC0131839C
:10125000208340C029813A8189EC96E0A901481B8E
:10126000590BCA0186309105ACF189819A810697A4
:101270009C838B832B813C81CE01059646E0F9014E
:1012800000802F5F3F4FFC010082019641504423B4
:10129000B1F78B819C8129813A8146E0F901008078
:1012A0002F5F3F4FFC010082019641504423B1F76C
:1012B00089819A819E012B5F3F4F46E0F9010080B2
:1012C0002F5F3F4FFC010082019641504423B1F74C
:1012D00001C000002C960FB6F894DEBF0FBECDBF44
:1012E000DF91CF910895CF93DF9300D00F92CDB7C8
:1012F000DEB79B838A838A819B812FEF8F3F920782
:1013000019F48FEF9FEF2EC0198227C08981282FF3
:1013100030E0C901880F991F820F931F880F991F12
:101320008753994FFC01208131818A819B81281745
:10133000390781F48981282F30E0C901880F991F6E
:10134000820F931F880F991F8553994FFC0180814D
:10135000918108C089818F5F898389818436B0F249
:101360008FEF9FEF0F900F900F90DF91CF91089527
:10137000CF93DF9300D0CDB7DEB79A83898389817D
:101380009A81FC01878590890E947309FFEF8F3F46
:101390009F07A9F089819A818D579F4F25EF39E0EA
:1013A000FC013183208389819A818E579F4F22E0EF
:1013B000FC01208389819A810E94260F11C08981B6
:1013C0009A81FC018585968529813A81F9012785D5
:1013D0003089B9010E94050A89819A810E943C07DF
:1013E0000F900F90DF91CF910895CF93DF9300D0AE
:1013F000CDB7DEB79A83898389819A810E943C07A1
:101400000F900F90DF91CF910895CF93DF93CDB7D9
:10141000DEB728970FB6F894DEBF0FBECDBF9E8310
:101420008D8378876F8385E00E94EF069A83898396
:1014300089819A81009789F189819A810E94640744
:1014400089819A818D579F4F27E53AE0FC013183CE
:10145000208389819A812D813E81FC01308B2787F1
:1014600089819A8142969C838B838B819C8121E028
:10147000FC0120838B819C812D813E81FC01328384
:1014800021838B819C812F813885FC0134832383C8
:1014900089819A810E94260F01C0000028960FB60C
:1014A000F894DEBF0FBECDBFDF91CF910895CF93EB
:1014B000DF9300D0CDB7DEB79A83898389819A8183
:1014C0000E943C070F900F90DF91CF910895CF932A
:1014D000DF9300D000D0CDB7DEB79C838B838B81A8
:1014E0009C81FC01858196819A83898389819A8177
:1014F000FC01838194810E9431080F900F900F901E
:101500000F90DF91CF910895CF93DF930F92CDB7D6
:10151000DEB7198212C08981282F30E0C901880FF7
:10152000991F880F991F820F931F8C5D964FFC01A6
:101530001182108289818F5F898389818A3058F373
:101540001092530984E190E0A0E0B0E080935B0941
:1015500090935C09A0935D09B0935E0910925F09B6
:1015600084E99BE0909361098093600926EC3CE05C
:1015700080E0B9010E94B7040F90DF91CF910895E8
:10158000CF93DF9300D000D0CDB7DEB79C838B83A1
:101590008B819C81FC01808191810196FC0180817D
:1015A000883809F058C08B819C81FC018081918131
:1015B000FC018081813651F08B819C81FC0180810E
:1015C0009181FC018081813409F045C08B819C812F
:1015D000FC018281803108F43EC08B819C81FC013A
:1015E000828180510E94EF069A83898389819A8142
:1015F000009799F189819A8120E2FC0120838B81F7
:101600009C81FC01238189819A8181589F4FFC0133
:1016100020838B819C81FC01248189819A8180585F
:101620009F4FFC01208389819A8102962B813C8106
:10163000F901408151812B813C81F9012281222FC6
:1016400030E0BA01A9010E94471E809153098F5FC3
:101650008093530903C0000001C000000F900F9059
:101660000F900F90DF91CF910895CF93DF9300D02B
:1016700000D000D0CDB7DEB79E838D8383E00E947B
:10168000EF069A83898389819A81009799F18981EC
:101690009A810E94640789819A818D579F4F24E81F
:1016A0003BE0FC01318320838D819E81FC012585F7
:1016B000368589819A81FC01308B278789819A81BF
:1016C00042969C838B838B819C81FC0110822091AC
:1016D00054098B819C81FC0122838D819E81FC01B8
:1016E00024858B819C81FC01218389819A810E94C0
:1016F000260F01C0000026960FB6F894DEBF0FBE7D
:10170000CDBFDF91CF910895CF93DF9300D0CDB7B8
:10171000DEB79A83898389819A810E943C070F9062
:101720000F90DF91CF910895CF93DF9300D000D039
:10173000CDB7DEB79C838B8319821A8234C08A812D
:10174000282F30E0C901880F991F880F991F820F39
:10175000931F8C5D964FFC0180819181009701F170
:101760008A81282F30E0C901880F991F880F991F9F
:10177000820F931F8C5D964FFC0180819181AC019B
:1017800041505040C901880F991F880F991F820F3F
:10179000931F8C5D964FFC015183408381E08983C8
:1017A0008A818F5F8A838A818A3048F2898188237F
:1017B00021F08B819C810E940A120F900F900F9054
:1017C0000F90DF91CF910895CF93DF9300D000D099
:1017D0000F92CDB7DEB79D838C838FEF89831A82FA
:1017E00082C08A81282F30E0C901880F991F880F95
:1017F000991F820F931F8C5D964FFC018081918110
:10180000009709F46BC08C819D81FC014385548550
:101810008A81282F30E0C901880F991F880F991FEE
:10182000820F931F8F5D964FFC0180819181481735
:10183000590709F055C08C819D81FC0142858A8140
:10184000282F30E0C901880F991F880F991F820F38
:10185000931F8D5D964FFC018081F42FF81B8F2F15
:101860008B838B8118162CF58A81282F30E08C8190
:101870009D81FC014285C901880F991F880F991F1E
:10188000820F931F8D5D964FFC0140838A81282F24
:1018900030E0C901880F991F880F991F820F931F8D
:1018A0008C5D964F25E630E0FC013183208380E09B
:1018B00065C020913D0B30913E0B8C819D81FC01D8
:1018C000858196812817390739F48C819D81FC0127
:1018D000858596850E94310881E050C08A81898380
:1018E0008A818F5F8A838A818A3008F47ACF8981DE
:1018F0008F3F11F481E042C08981282F332727FDD3
:1019000030958C819D81FC0143855485C901880FE8
:10191000991F880F991F820F931F8F5D964FFC01AF
:10192000518340838981282F332727FD30958C816F
:101930009D81FC014285C901880F991F880F991F5D
:10194000820F931F8D5D964FFC0140838981282F64
:10195000332727FD3095C901880F991F880F991FDC
:10196000820F931F8C5D964F25E630E0FC0131839A
:10197000208385E599E00E940A1280E00F900F9085
:101980000F900F900F90DF91CF910895CF93DF9339
:1019900000D00F92CDB7DEB79B838A838A819B816B
:1019A000FC0185819681FC0180818983898188235E
:1019B00029F48A819B810E9437100AC08981813075
:1019C00029F48A819B810E94670A02C080E001C0DD
:1019D00081E00F900F900F90DF91CF910895CF93FA
:1019E000DF93CDB7DEB72E970FB6F894DEBF0FBEEC
:1019F000CDBF9E878D878D859E8502969A8389832C
:101A000089819A81FC01878582958F70882F90E06B
:101A10008530910594F489819A81FC0187858295AE
:101A20008F70882F90E00396880F991F835C944FE6
:101A3000FC0180819181009711F480E092C089813E
:101A40009A81FC01838594859C838B8389819A810B
:101A5000FC0187858F708D8389819A81FC01878540
:101A600082958F708E838D859E8542969987888713
:101A70008D859E85FC01818180518A878D859E851B
:101A800081589F4FFC0180818B878D859E85805872
:101A90009F4FFC0180818C8789819A81FC0181851F
:101AA00081708F838F81282F89819A81FC018185A4
:101AB0008270822B8F838F81282F89819A81FC01EC
:101AC00081858470882311F080E201C080E0822B40
:101AD0008F838F81282F89819A81FC018585968546
:101AE000FFEF8F3F9F0711F484E001C080E0822B5D
:101AF0008F838F81482F89819A81FC0123853485CA
:101B000089819A81FC01878190852817390711F412
:101B100088E001C080E0842B8F838F81282F89810A
:101B20009A81FC0183819481FFEF8F3F9F0711F41D
:101B300080E101C080E0822B8F8389819A81FC0142
:101B4000878582958F70882F90E00396880F991F64
:101B5000835C944FFC0120813181CE010396F90111
:101B600009952E960FB6F894DEBF0FBECDBFDF915C
:101B7000CF910895CF93DF9300D000D0CDB7DEB7DB
:101B80009C838B838B819C8102969A8389838B8132
:101B90009C8124E2FC01208389819A81FC01858556
:101BA0009685FFEF8F3F9F0741F489819A81FC0161
:101BB00081858170882309F07FC020913D0B309191
:101BC0003E0B89819A81FC0183859485281739070A
:101BD00009F472C089819A81FC0181858270882311
:101BE00009F06CC08B819C810E94510889819A8187
:101BF0000E94E40B882309F063C089819A81FC016B
:101C000085819681FFEF8F3F9F0701F520913D0B66
:101C100030913E0B89819A81FC0185859685281734
:101C20003907A1F089819A81FC0183819481FFEFBA
:101C30008F3F9F0759F089819A81FC0181858470CB
:101C4000882321F48B819C810E94B20F20913D0B4F
:101C500030913E0B89819A81FC01858596852817F4
:101C6000390749F089819A81FC0185859685FFEFC6
:101C70008F3F9F0731F48B819C8122E2FC012083FE
:101C800020C020913D0B30913E0B89819A81FC014F
:101C90008581968128173907A1F489819A81FC01F1
:101CA00083819481FFEF8F3F9F0759F08B819C8147
:101CB00023E2FC01208305C0000003C0000001C036
:101CC00000000F900F900F900F90DF91CF9108952B
:101CD000CF93DF93CDB7DEB728970FB6F894DEBF6A
:101CE0000FBECDBF80915309882309F484C01A82A6
:101CF00019827AC089810E944C079C838B838B81D7
:101D00009C81FC018081882F90E082329105A9F0AE
:101D10008332910524F48032910551F060C0833202
:101D2000910509F448C08432910509F44EC057C0AA
:101D30008B819C810E94BA0D52C08B819C8102963E
:101D40009E838D83109254098B819C810E94EF0C9D
:101D50008F838D819E81FC0185819681FFEF8F3F6E
:101D60009F0779F420913D0B30913E0B8D819E8130
:101D7000FC01858596852817390719F481E090E0E4
:101D800002C080E090E088878D819E81FC01818582
:101D90008170882319F08F81882319F4888588231E
:101DA00021F08B819C810E94350B8B819C8124E2E8
:101DB000FC01208314C08B819C810E94B809809112
:101DC00053098150809353090AC08B819C810E94E2
:101DD0003C07809153098150809353090000898109
:101DE0009A8101969A83898389819A8188309105A5
:101DF0000CF480CF01C0000028960FB6F894DEBF27
:101E00000FBECDBFDF91CF910895CF93DF93CDB7B4
:101E1000DEB710926309109262091092640982E39E
:101E200090E0A0E0B0E080936B0990936C09A093E0
:101E30006D09B0936E0910926F098BE890E1909351
:101E4000710980937009DF91CF910895CF93DF934B
:101E500000D000D0CDB7DEB79C838B838B819C8173
:101E600002969A8389838B819C818E579F4FFC01B8
:101E70008081882F90E082709070009731F08B8184
:101E80009C8121E1FC01208305C08B819C8121E1A3
:101E9000FC0120838B819C8181589F4FFC01108223
:101EA0008B819C818E579F4FFC018081882F90E011
:101EB00081709070882341F08B819C812FEF3FEFE0
:101EC000FC013683258309C020913F0B3091400BE4
:101ED0008B819C81FC013683258389819A81FC0159
:101EE000858596850E9473099C0189819A81FC01F0
:101EF0003683258320913D0B30913E0B89819A8159
:101F0000FC01308727838091420B8F5F8093420BC7
:101F10002091420B89819A81FC01228389819A81D7
:101F2000FC0185819681FFEF8F3F9F0741F48981F6
:101F30009A8121E438E8FC013183208307C089813C
:101F40009A8121E638E8FC0131832083809164097D
:101F50008F5F809364090F900F900F900F90DF9127
:101F6000CF910895CF93DF9300D000D0CDB7DEB7E7
:101F70009C838B838B819C81FC01818180510E9499
:101F8000EF069A83898389819A81009709F457C063
:101F900089819A818D579F4F27E230E1FC0131837F
:101FA000208389819A8102962B813C81A9014E5F11
:101FB0005F4F2B813C81F9012181222F30E0BA0152
:101FC000A9010E94471E89819A8121E1FC01208399
:101FD00089819A8181589F4FFC01108289819A8161
:101FE00021E438E8FC013383228389819A812FEF31
:101FF0003FEFFC013087278320913F0B3091400B4E
:1020000089819A81FC013683258320913D0B309193
:102010003E0B89819A81FC01328721878091420B96
:102020008F5F8093420B2091420B89819A81FC0142
:102030002483809164098F5F8093640901C000004C
:102040000F900F900F900F90DF91CF910895CF9345
:10205000DF9300D0CDB7DEB79A83898389819A81D7
:102060000E943C070F900F90DF91CF910895CF937E
:10207000DF93CDB7DEB728970FB6F894DEBF0FBE5B
:10208000CDBF98878F838F819885FC01858196814C
:102090009C838B8380916409882399F11A82198229
:1020A0002AC089810E944C079E838D838D819E81E9
:1020B000FC0180818431D1F48D819E81FC012485D5
:1020C0008B819C81FC018181281781F48D819E8107
:1020D00025E1FC0120838B819C81FC0122818D8183
:1020E0009E818E579F4FFC0120830CC089819A816D
:1020F00001969A83898389819A81883091058CF22F
:1021000001C0000028960FB6F894DEBF0FBECDBF09
:10211000DF91CF910895CF93DF9300D000D000D00E
:10212000CDB7DEB79E838D8380916409882309F43F
:1021300043C01A82198236C089810E944C079C8351
:102140008B838B819C81FC018081843131F58B8173
:102150009C8180589F4FFC01808191819C0121507E
:1021600030408B819C8180589F4FFC0131832083BC
:102170008B819C8180589F4FFC01808191810097C9
:1021800061F48B819C8125E1FC0120838B819C8102
:1021900081589F4F20E1FC01208389819A8101961B
:1021A0009A83898389819A81883091052CF28D8167
:1021B0009E810E940A1201C0000026960FB6F89474
:1021C000DEBF0FBECDBFDF91CF910895CF93DF93D8
:1021D0000F92CDB7DEB789838981882331F0898159
:1021E000813019F08981823011F480E00BC089813F
:1021F000833011F480E206C08981853011F481E2D8
:1022000001C081E00F90DF91CF9108950F931F934C
:10221000CF93DF930F92CDB7DEB789830091620928
:102220001091630989810E94E610282FC801815806
:102230009F4FFC012083809162099091630923E103
:10224000FC01208310926309109262090F90DF91C4
:10225000CF911F910F910895CF93DF9300D000D0BD
:10226000CDB7DEB780916409882309F4A4C01A822F
:1022700019829AC089810E944C079C838B838B8131
:102280009C81FC018081882F90E08331910591F140
:102290008431910544F48131910571F082319105C9
:1022A00009F478C076C08431910509F475C0853190
:1022B000910509F459C06DC00E94D201982F81E0A8
:1022C0008927882309F46AC08B819C8190936309D4
:1022D000809362098B819C8122E1FC0120838B81A8
:1022E0009C8102962B813C81F9012181622F0E9401
:1022F000E60154C08B819C8181589F4FFC018081F5
:10230000882361F58B819C81FC0125853685809130
:102310003D0B90913E0B28173907D1F48B819C819E
:10232000FC0183858170882399F08B819C8124E155
:10233000FC0120838B819C8180589F4F2BE030E0F3
:10234000FC013183208385E699E00E940A1227C0B0
:102350008B819C8125E1FC01208321C08B819C81A4
:1023600025E1FC0120831BC08B819C810E94EA082F
:102370008B819C818D579F4FFC01208131818B8106
:102380009C81F901099580916409815080936409C9
:1023900006C005C0000003C0000001C00000898124
:1023A0009A8101969A83898389819A8188309105DF
:1023B0000CF460CF01C000000F900F900F900F90B1
:1023C000DF91CF910895CF93DF93CDB7DEB70E9411
:1023D000D2000E94FF110E943B010E945D04DF9128
:1023E000CF910895CF93DF93CDB7DEB70E94280336
:1023F0000E94D3040E94C212DF91CF910895CF931F
:10240000DF93CDB7DEB71092730910927209DF9196
:10241000CF910895CF93DF9300D0CDB7DEB79A83E5
:10242000898389819A810E949712982F81E0892758
:10243000882321F089819A810E9482130F900F9046
:10244000DF91CF910895CF93DF9300D000D000D0DB
:10245000CDB7DEB79E838D831A821982809172096F
:10246000909173099C838B8352C02B813C818D8119
:102470009E812817390709F03FC089819A8100970A
:1024800059F08B819C81FC012081318189819A8165
:10249000FC013183208309C08B819C81FC018081F8
:1024A000918190937309809372098B819C81FC01C7
:1024B00080819181009789F18B819C81FC016081F1
:1024C00071818B819C81FC0180819181FC01228141
:1024D0003381448155818D819E81FC01828193816C
:1024E000A481B581820F931FA41FB51FFB018283B6
:1024F0009383A483B58311C08B819C819A83898344
:102500008B819C81FC01808191819C838B838B8159
:102510009C81009709F0A9CF01C0000026960FB654
:10252000F894DEBF0FBECDBFDF91CF910895CF935A
:10253000DF9300D000D0CDB7DEB79C838B83809132
:102540007209909173099A83898310C029813A8115
:102550008B819C812817390711F481E00CC0898197
:102560009A81FC01808191819A83898389819A81F2
:10257000009761F780E00F900F900F900F90DF9120
:10258000CF910895EF92FF920F931F93CF93DF9314
:10259000CDB7DEB728970FB6F894DEBF0FBECDBF1C
:1025A00080913C0B882309F49FC08FE590E0FC01EB
:1025B00080818D83F89480913C0B8E8310923C0B2C
:1025C0008FE590E02D81FC0120838E81882F90E0A3
:1025D000A0E0B0E02AE030E040E050E0BC01CD01F6
:1025E0000E946E1DDC01CB0189839A83AB83BC837F
:1025F0003DC0809172099091730998878F83809173
:10260000720990917309FC0182819381A481B58143
:1026100029813A814B815C8179018A01E81AF90AA2
:102620000A0B1B0BD801C70189839A83AB83BC8338
:102630008091720990917309FC018081918190933E
:102640007309809372098F819885FC01828581309E
:1026500021F48F8198850E9482138F819885FC01D7
:10266000238534858F819885F901099580917209B8
:1026700090917309009799F0809172099091730974
:10268000FC01228133814481558189819A81AB810A
:10269000BC8182179307A407B50708F0AACF8091E1
:1026A000720990917309009701F16091720970911C
:1026B00073098091720990917309FC012281338121
:1026C0004481558189819A81AB81BC8179018A01DC
:1026D000E81AF90A0A0B1B0BD801C701FB01828318
:1026E0009383A483B58301C0000028960FB6F894A5
:1026F000DEBF0FBECDBFDF91CF911F910F91FF9035
:10270000EF900895EF92FF920F931F93CF93DF9373
:10271000CDB7DEB72A970FB6F894DEBF0FBECDBF98
:102720009A8789878091720990917309009709F4BB
:1027300097C01A82198289859A85FC0186819781C2
:10274000A085B1858B839C83AD83BE838091720904
:102750009091730998878F834DC08F819885FC0174
:1027600022813381448155818B819C81AD81BE81E1
:1027700082179307A407B507D8F48F819885FC01C9
:1027800022813381448155818B819C81AD81BE81C1
:1027900079018A01E81AF90A0A0B1B0BD801C70153
:1027A0002F813885F90182839383A483B58327C061
:1027B0008F819885FC0182819381A481B5812B81D1
:1027C0003C814D815E8179018A01E81AF90A0A0B80
:1027D0001B0BD801C7018B839C83AD83BE838F8184
:1027E00098859A8389838F819885FC018081918166
:1027F00098878F838F819885009709F0AECF2985C0
:102800003A858B819C81AD81BE81F901828393835E
:10281000A483B58389819A81009791F089819A81F7
:10282000FC012081318189859A85FC0131832083D7
:1028300089819A8129853A85FC013183208329C0C9
:10284000209172093091730989859A85FC01318341
:10285000208389859A85909373098093720919C0A2
:1028600089859A85FC011182108289859A85FC01EF
:1028700086819781A085B18529853A85F901828372
:102880009383A483B58389859A85909373098093F4
:1028900072092A960FB6F894DEBF0FBECDBFDF9146
:1028A000CF911F910F91FF90EF900895CF93DF93F9
:1028B000CDB7DEB7F89481E0DF91CF910895CF9343
:1028C000DF9300D0CDB7DEB79A8389838FE590E0A0
:1028D00029813A81F9012081FC0120830F900F901A
:1028E000DF91CF910895CF93DF9300D0CDB7DEB7BE
:1028F0009A8389831092DA090F900F90DF91CF911C
:102900000895CF93DF93CDB7DEB78091DA0988239E
:10291000C1F58091B70A8823A1F18091B70A282FC9
:1029200030E08DED99E04AE45AE0BA01A9010E9435
:10293000471E8FEF9FEF9093BE098093BD0984E0FF
:102940008093BF0984E08093C0091092C1098AE492
:102950009AE09093C3098093C2098091B70A80934B
:10296000C40983E794E19093C6098093C50988EB75
:1029700099E00E94EB041092B70A81E08093DA0993
:1029800001C00000DF91CF910895CF93DF9300D075
:10299000CDB7DEB79A8389831092DB090F900F9031
:1029A000DF91CF910895CF93DF9300D0CDB7DEB7FD
:1029B0008091DB09882309F082C081E08093B70A07
:1029C0008FEF9FEF9093CF098093CE0982E08093A1
:1029D000D00982E08093D1091092D2098AE49AE06A
:1029E0009093D4098093D3098091B70A8093D50935
:1029F00085EC94E19093D7098093D60989EC99E00E
:102A00000E94EB041092B70A81E08093DB091092D8
:102A1000DC0981E08093CE0A83E08093760984E02C
:102A200080932F0B82E08093C50A81E08093C70AD0
:102A30001A8219822FC089819A818153954FFC0196
:102A4000108289819A818150954FFC011082898181
:102A50009A8101968153954FFC01108289819A8158
:102A600001968150954FFC01108289819A810296CE
:102A70008153954F24ECFC01208389819A81029631
:102A80008150954F24ECFC01208389819A81039623
:102A90009A83898389819A818033910564F28DE7D5
:102AA00090E0A0E0B0E080938A0990938B09A09316
:102AB0008C09B0938D0981E08093C80A01C00000A1
:102AC0000F900F90DF91CF910895CF93DF9300D0B7
:102AD000CDB7DEB79A8389830F900F90DF91CF91A6
:102AE0000895CF93DF9300D0CDB7DEB79A83898363
:102AF00080912F0B843009F041C08091C80A88234F
:102B0000E9F18091CB0A9091CC0A8333910568F169
:102B10002091CB0A3091CC0A8091C80A882F90E08E
:102B2000A901481B590BCA019093CC0A8093CB0A88
:102B30008091CB0A9091CC0A8233910530F482E3E4
:102B400090E09093CC0A8093CB0A8091CB0A90912D
:102B5000CC0ACC01A0E0B0E080938A0990938B0965
:102B6000A0938C09B0938D0909C08091C50A853066
:102B700028F48091C50A8F5F8093C50A0F900F904B
:102B8000DF91CF910895CF93DF9300D0CDB7DEB71B
:102B90009A8389838091B80A8F5F8093B80A809165
:102BA000B80A8B3118F08BE08093B80A8091B80A8C
:102BB0000E9492010F900F90DF91CF910895CF93D3
:102BC000DF9300D000D0CDB7DEB79C838B8380919C
:102BD000DC09882309F457C083E0809376098BEAE7
:102BE00099E00E940A1284E080932F0B82E0809388
:102BF000C50A81E08093C70A1A8219822FC0898191
:102C00009A818153954FFC01108289819A8181506C
:102C1000954FFC01108289819A8101968153954FCD
:102C2000FC01108289819A8101968150954FFC01A7
:102C3000108289819A8102968153954F24ECFC0180
:102C4000208389819A8102968150954F24ECFC0162
:102C5000208389819A8103969A83898389819A81C5
:102C60008033910564F28DE790E0A0E0B0E08093BE
:102C70008A0990938B09A0938C09B0938D0981E008
:102C80008093C80A07C081E08093DC098BEA99E051
:102C90000E9423120F900F900F900F90DF91CF9111
:102CA00008950F931F93CF93DF93CDB7DEB764974B
:102CB0000FB6F894DEBF0FBECDBF9C8B8B8B80917F
:102CC0002F0B882F90E08330910509F44FC1843099
:102CD00091055CF48130910509F459C08230910569
:102CE000ACF4009709F45BC258C28530910509F431
:102CF00086C1853091050CF4A1C08630910509F498
:102D0000FFC18730910509F428C247C28091C00AEB
:102D1000882329F581E08093C00A1A82198219C09C
:102D200089819A818153954FFC01108289819A8112
:102D300001968153954FFC01108289819A810296F8
:102D40008153954FFC01108289819A8103969A8361
:102D5000898389819A818033910514F311C010927F
:102D6000C00A8FEC9AE02FEF3AE040E3F9010080CF
:102D70002F5F3F4FFC010082019641504423B1F781
:102D80008FEC9AE060E370E00E94B2000BC2809189
:102D9000CF0A8093BE0A8091D00A8093BD0A8091A9
:102DA000D10A8093BF0A1C821B8230C08B819C8118
:102DB00003968153954FFC0120818B819C81815327
:102DC000954FFC0120838B819C8101962B813C8156
:102DD0002C5F3F4F2153354FF90120818153954F8F
:102DE000FC0120838B819C8102962B813C812B5F8F
:102DF0003F4F2153354FF90120818153954FFC01FD
:102E000020838B819C8103969C838B838B819C8107
:102E1000803391055CF28091BE0A8093FC0A809118
:102E2000BD0A8093FD0A8091BF0A8093FE0A8FEC51
:102E30009AE060E370E00E94B200B4C11092C60A4A
:102E40008091C70A8823D9F11E821D822BC08D81F3
:102E50009E818153954FFC0190818091C50A9817FE
:102E6000B0F08D819E818153954FFC0190818091BE
:102E7000C50A292F281B8D819E818153954FFC0106
:102E800020838091C60A8F5F8093C60A06C08D8119
:102E90009E818153954FFC0110828D819E81019608
:102EA0009E838D838D819E818033910584F28091F4
:102EB000C60A882309F053C01092C70A50C018866A
:102EC0001F8240C08F8198858150954FFC01808181
:102ED000282F30E08F8198858153954FFC018081A8
:102EE000882F90E0281B390B8091C50A882F90E02D
:102EF00082179307B4F48F8198858153954FFC0115
:102F000090818091C50A292F280F8F819885815340
:102F1000954FFC0120838091C60A8F5F8093C60A7B
:102F20000CC08F8198858150954FFC0120818F8145
:102F300098858153954FFC0120838F819885019658
:102F400098878F838F819885803391050CF4BACF51
:102F50008091C60A882319F481E08093C70A8FEC18
:102F60009AE060E370E00E94B2001CC10E94371E2C
:102F70009093C20A8093C10A2091C10A3091C20A7B
:102F80008091C30A9091C40A8217930780F08FEC56
:102F90009AE02FEF3AE040E3F90100802F5F3F4FC6
:102FA000FC010082019641504423B1F721C01A86EA
:102FB000198619C089859A858153954FFC01108225
:102FC00089859A8501968153954FFC0110828985E8
:102FD0009A8502968153954FFC01108289859A85C6
:102FE00003969A87898789859A858033910514F39A
:102FF0008FEC9AE060E370E00E94B200D3C084E6F8
:103000008093C90A1092CA0A6FC01092CA0A1C861D
:103010001B8620C08091CA0A282F26558B859C8547
:103020008153954FFC0120838B859C8501962091CF
:10303000CA0A21558153954FFC0120838B859C85BD
:1030400002968153954FFC0110828B859C850396D7
:103050009C878B878B859C8580339105DCF28091E2
:10306000CA0A8B5F8093CA0A8091C90A082F10E0B0
:103070000E94371E2091C90A222F30E0B9010E9418
:10308000991D0817190749F08091C90A9DE0692F19
:103090000E948D1D892F882311F51E861D861AC05A
:1030A0008D859E858153954FFC0110828D859E856F
:1030B00001968153954F2FEFFC0120838D859E85CE
:1030C00002968153954FFC0110828D859E85039653
:1030D0009E878D878D859E85803391050CF3809129
:1030E000C90A81508093C90A8091C90A882309F0CE
:1030F0008CCF8FEC9AE060E370E00E94B20052C087
:10310000188A1F861EC08F8598898153954FFC01B0
:1031100010828F85988901962091310B8153954FAC
:10312000FC0120838F85988902962091310B209590
:103130008153954FFC0120838F8598890396988B46
:103140008F878F85988980339105ECF28FEC9AE018
:1031500060E370E00E94B20025C08091CD0A882310
:1031600001F11092CD0A1A8A198A0BC089899A89AD
:103170008153954FFC01108289899A8901969A8B17
:10318000898B89899A898033910584F38FEC9AE041
:1031900060E370E00E94B20004C0000003C00000C1
:1031A00001C0000064960FB6F894DEBF0FBECDBF1D
:1031B000DF91CF911F910F910895CF93DF9300D0AE
:1031C000CDB7DEB79A8389831092DC098AE49AE04E
:1031D0009093BA0A8093B90A89819A81FC0145814A
:1031E000568189819A81FC018781282F30E08AE409
:1031F0009AE0BA01A9010E94471E87E08093040269
:1032000082E08093760989819A81FC018185982FDB
:10321000892F880F880F880F890F865D8093300B68
:103220008091310B982F96959695892F880F980F3E
:103230008091300B890F8093310B81E00F900F90BC
:10324000DF91CF910895CF93DF9300D000D0CDB719
:10325000DEB79C838B838BE290E02BE230E0F901B8
:10326000308120E82327FC01208381E08093CE0A6F
:1032700083E08093760984E080932F0B82E0809333
:10328000C50A81E08093C70A1A8219822FC08981FA
:103290009A818153954FFC01108289819A818150D6
:1032A000954FFC01108289819A8101968153954F37
:1032B000FC01108289819A8101968150954FFC0111
:1032C000108289819A8102968153954F24ECFC01EA
:1032D000208389819A8102968150954F24ECFC01CC
:1032E000208389819A8103969A83898389819A812F
:1032F0008033910564F28DE790E0A0E0B0E0809328
:103300008A0990938B09A0938C09B0938D0981E071
:103310008093C80A81E00F900F900F900F90DF917B
:10332000CF910895CF93DF9300D000D0CDB7DEB713
:103330008FE390E0FC018081882F90E08270907094
:103340000097B1F78FE590E0FC0180818C830E94AB
:103350005614898326C080E090E00E94501E90930E
:10336000750980937409809174099091750900978B
:1033700041F08091740990917509FFEF8F3F9F078D
:1033800031F40E94371E909375098093740920913F
:1033900074093091750980E090E0B9010E94561ED1
:1033A000198289818823B9F6CE0104960E945F14A0
:1033B00080917409909175090E943C1E8091740956
:1033C000909175090E948B0486E496E40E94A10402
:1033D0008DE08093B80A8091B80A0E94920181E042
:1033E0000E9480012DED38E181E0B9010E94B7040F
:1033F00023E239E182E0B9010E94B70480E395E756
:10340000A0E0B0E080937D0990937E09A0937F09AE
:10341000B093800981E08093810985E695E19093DE
:1034200083098093820987E799E00E940A1280E36A
:1034300095E7A0E0B0E08093A4099093A509A0933C
:10344000A609B093A70981E08093A8098FED95E1C3
:103450009093AA098093A9098EE999E00E940A1223
:103460008EE390E0A0E0B0E080938A0990938B090E
:10347000A0938C09B0938D0981E080938E0981E53A
:1034800096E19093900980938F0984E899E00E94D7
:103490000A1288EE93E0A0E0B0E080939709909341
:1034A0009809A0939909B0939A0981E080939B09A8
:1034B00081E795E190939D0980939C098EE999E0BD
:1034C0000E940A1280ED97E0A0E0B0E08093B1097D
:1034D0009093B209A093B309B093B40981E08093AB
:1034E000B50983EC95E19093B7098093B6098BEA0F
:1034F00099E00E940A1283E390E023E330E0F901AF
:1035000020812160FC01208384E390E024E330E00B
:10351000F90120812E7FFC0120838AE290E02AE2DB
:1035200030E0F90120812068FC0120838BE290E0EB
:103530002BE230E0F90120812F77FC01208384E227
:1035400090E024E230E0F90120812061FC01208339
:1035500085E290E025E230E0F90120812F7EFC0138
:1035600020838AE290E02AE230E0F90120812061A4
:10357000FC0120838BE290E02BE230E0F901208116
:103580002F7EFC0120838DE290E02DE230E0F901F6
:1035900020812061FC0120838EE290E02EE230E069
:1035A000F90120812F7EFC0120838DE290E02DE245
:1035B00030E0F90120812062FC0120838EE290E05E
:1035C0002EE230E0F90120812F7DFC0120838DE285
:1035D00090E02DE230E0F90120812064FC0120839D
:1035E0008EE290E02EE230E0F90120812F7BFC0199
:1035F00020838DE290E02DE230E0F9012081206807
:10360000FC0120838EE290E02EE230E0F90120817F
:103610002F77FC0120838AE290E02AE230E0F90172
:1036200020812E7FFC0120838BE290E02BE230E0B2
:10363000F90120812E7FFC0120838BE290E02BE2B8
:1036400030E0F90120812160FC0120831092350BCC
:103650001092340B1092370B1092360B1092390BDC
:103660001092380B10923B0B10923A0B10922F0BCA
:1036700080E092E09093C40A8093C30A84E0809330
:10368000C50A1B821A8219C08A819B818153954F7A
:10369000FC0110828A819B8101968153954FFC0128
:1036A00010828A819B8102968153954FFC01108282
:1036B0008A819B8103969B838A838A819B81803345
:1036C000910514F38FEC9AE060E370E00E94B20081
:1036D0001092CE0A1092DA0982E08093B70A8091A4
:1036E00000009091010080934A0A10924B0A0E94B8
:1036F00081141092B70A0F900F900F900F90DF91E6
:10370000CF910895CF93DF9300D0CDB7DEB78091EE
:103710007609882F90E08130910599F082309105EB
:103720001CF4009741F02BC18230910551F1833098
:10373000910591F024C10E94921981E0809376094D
:103740009CC189E290E0FC0180818170882309F0AE
:103750008FC10E94D3148CC189E290E0FC0180816A
:103760008170882309F086C18BE290E02BE230E083
:10377000F901308120E82327FC0120830E94D31423
:1037800079C18091B90A9091BA0AFC01808188239D
:1037900009F0DFC08091B90A9091BA0AFC018181D9
:1037A00080932F0B80912F0B882F90E08430910510
:1037B00091F087309105F1F083309105F9F4809113
:1037C000B90A9091BA0AFC0182A993A99093C40AFC
:1037D0008093C30A14C08091B90A9091BA0AFC017F
:1037E00082A993A98093C50A81E08093C70A1092A9
:1037F000C80A05C081E08093CD0A01C00000809115
:10380000B90A9091BA0AFC0184A995A9A6A9B7A9F9
:1038100080938A0990938B09A0938C09B0938D09AA
:103820008091B90A9091BA0AFC0184A995A9A6A928
:10383000B7A99093CC0A8093CB0A1092BC0A10923D
:10384000BB0A1A82198275C02091B90A3091BA0A4E
:103850008091BB0A9091BC0A820F931F4296FC0193
:10386000208189819A818153954FFC012083898130
:103870009A818153954FFC01208189819A818150E1
:10388000954FFC01208389819A8101964091B90A64
:103890005091BA0A2091BB0A3091BC0A240F351FFF
:1038A0002E5F3F4FF90120818153954FFC0120830A
:1038B00089819A81019629813A812F5F3F4F215357
:1038C000354FF90120818150954FFC01208389817A
:1038D0009A8102964091B90A5091BA0A2091BB0A86
:1038E0003091BC0A240F351F2E5D3F4FF901208116
:1038F0008153954FFC01208389819A810296298109
:103900003A812E5F3F4F2153354FF901208181507D
:10391000954FFC0120838091BB0A9091BC0A0196CF
:103920009093BC0A8093BB0A89819A8103969A83FB
:10393000898389819A81803391050CF485CF8FEC3E
:103940009AE060E370E00E94B20081E08093760923
:1039500012C08091B90A9091BA0AFC01808181302D
:1039600051F08091B90A9091BA0AFC0180818230AD
:1039700011F41092DC0981E0809376097EC0809179
:10398000340B9091350B01969093350B8093340B4B
:103990008091340B9091350B8330910570F010922B
:1039A000350B1092340B8EE290E02EE230E0F901FC
:1039B000308120E12327FC0120838091360B9091F8
:1039C000370B01969093370B8093360B8091360B13
:1039D0009091370B8230910570F01092370B109256
:1039E000360B8EE290E02EE230E0F901308120E2E9
:1039F0002327FC0120838091380B9091390B01968D
:103A00009093390B8093380B8091380B9091390B40
:103A10008230910570F01092390B1092380B8EE2C3
:103A200090E02EE230E0F901308120E42327FC0110
:103A3000208380913A0B90913B0B019690933B0B26
:103A400080933A0B80913A0B90913B0B8230910519
:103A500098F010923B0B10923A0B8EE290E02EE21F
:103A600030E0F901308120E82327FC01208304C0E5
:103A7000000003C0000001C000000F900F90DF9114
:103A8000CF910895CF93DF93CDB7DEB70E94E311B6
:103A900001C000000E94F2110E94821B8091320B33
:103AA0009091330B01969093330B8093320B80915E
:103AB000320B9091330B21E6893A920750F3109222
:103AC000330B1092320B84E390E024E330E0F901F1
:103AD000308121E02327FC012083DBCF629FD001CE
:103AE000739FF001829FE00DF11D649FE00DF11DB9
:103AF000929FF00D839FF00D749FF00D659FF00D68
:103B00009927729FB00DE11DF91F639FB00DE11D54
:103B1000F91FBD01CF0111240895991B79E004C05C
:103B2000991F961708F0961B881F7A95C9F78095FC
:103B3000089597FB092E07260AD077FD04D02ED0D2
:103B400006D000201AF4709561957F4F0895F6F71E
:103B5000909581959F4F0895A1E21A2EAA1BBB1B39
:103B6000FD010DC0AA1FBB1FEE1FFF1FA217B30749
:103B7000E407F50720F0A21BB30BE40BF50B661F5F
:103B8000771F881F991F1A9469F760957095809523
:103B900090959B01AC01BD01CF010895AA1BBB1BF1
:103BA00051E107C0AA1FBB1FA617B70710F0A61B3D
:103BB000B70B881F991F5A95A9F780959095BC015E
:103BC000CD0108958F929F92AF92BF92CF92DF92D4
:103BD000EF92FF92CF93DF93EC0188819981AA81C4
:103BE000BB810097A105B10521F484E299EDABE515
:103BF000B7E0BC01CD012DE133EF41E050E00E9480
:103C0000791E49015A0127EA31E440E050E00E9460
:103C10006E1D6B017C01C501B4012CEE34EF4FEF3A
:103C20005FEF0E946E1DDC01CB01C80ED91EEA1E9B
:103C3000FB1EF7FE08C08FEF9FEFAFEFBFE7C80E88
:103C4000D91EEA1EFB1EC882D982EA82FB82C60107
:103C50009F77DF91CF91FF90EF90DF90CF90BF9053
:103C6000AF909F908F9008950E94E21D089580E08C
:103C700092E00E94E21D0895A0E0B0E0809300026F
:103C800090930102A0930202B09303020895FB01F6
:103C9000DC0102C001900D9241505040D8F70895C8
:103CA000A8E1B0E042E050E00C945D1E0E946B1E63
:103CB000272F0C946C1EDC01CB01FC01F999FECF7F
:103CC00006C0F2BDE1BDF89A319600B40D924150A4
:103CD0005040B8F70895262FF999FECF1FBA92BD2C
:103CE00081BD20BD0FB6F894FA9AF99A0FBE0196DD
:103CF000089597FB092E05260ED057FD04D02CDF22
:103D00000AD0001C38F450954095309521953F4FCE
:103D10004F4F5F4F0895F6F7909580957095619598
:0C3D20007F4F8F4F9F4F0895F894FFCF06
:063D2C000100000004008C
:00000001FF
